S01000006C6569746F7272662E73726563AD
S113000050060020610100005D0100005D01000058
S113001000000000000000000000000000000000DC
S11300200000000000000000000000005D0100006E
S113003000000000000000005D0100005D01000000
S11300405D0100005D0100005D0100005D01000034
S11300505D0100005D0100005D0100005D01000024
S11300605D0100005D0100005D0100005D01000014
S11300705D0100005D0100005D0100005D01000004
S11300805D0100005D0100005D0100005D010000F4
S11300905D0100005D0100005D0100005D010000E4
S11300A008B5064B06480333191A062900D808BDBB
S11300B0044A002AFBD09047F9E7C046B004000088
S11300C0B00400000000000008B50748074B191AE7
S11300D08B10DA0FD118491000D108BD044B002B46
S11300E0FBD09847F9E7C046B0040000B004000014
S11300F00000000010B5074C2378002B09D1FFF74E
S1130100CFFF0548002802D0044800E000BF0121C9
S1130110217010BD3004002000000000B004000075
S113012008B5094B002B03D00848094900E000BF7B
S113013008480168002903D0074A002A00D09047E4
S1130140FFF7C2FF08BDC04600000000B004000075
S113015034040020B00400000000000000B5FEE7F5
S113016008B5194B194A9A4203D0194B164A9A42B8
S113017004D3184B184A9A420FD31BE0134A174B67
S113018013490331C91A890801318900043BC9188C
S113019001CA01C38B42FBD1EBE7114B0D4903317B
S11301A0C91A890801318900043BC918002204C313
S11301B08B42FCD10B4BFF210B4A8A439A600B4BB9
S11301C098470B4B9847FEE700000020B00400005E
S11301D030040020500400203004002004000020DB
S11301E03404002000ED00E00000000011040000D1
S11301F01903000030B5274B274A9A60274A5168F3
S11302001E2081435160196A254A0A401A62196AFC
S113021080220A431A621A6A40218A431A62196ABE
S113022002220A431A621F4B996908220A439A61FF
S113023001221D4B1A70191C0B781A42FCD107219C
S11302401A4D194B01248320400229705A7852B266
S1130250002AFBDB9C605A7852B2002AFBDB586010
S11302600139F2D21321104A114C8020C001537875
S11302705BB2002BFBDB21705388034353800131B5
S11302801729F4D1074B00221A725A729A72DA7241
S113029030BDC04600080040103600000040004158
S11302A0FFFCFFFF00040040000C0040080C00406D
S11302B0020C004000B5154B4022985C012101431B
S11302C099543022995C0F208143052001439954AD
S11302D00F4B196A8022D2000A431A620D4B198807
S11302E001220A431A80191C01220B881A42FCD1EC
S11302F0084B20221A8000225A719A711F221A83F5
S1130300198802220A431A8000BDC04600440041F5
S1130310000400400028004208B5074B9847074BEB
S11303209847074B16221A821A8A064B1A60044908
S11303301A1C0B8A1360FCE7F5010000B5020000EB
S1130340002800424C040020F7B51E1C234B171C48
S11303501A68051C141CFC34E06C0191002803D1BC
S1130360A62148001018E06443681F2B16DD1C4AC0
S1130370002A02D1012040422FE0C821480000E0B9
S113038000BF0028F6D0E26C002302604360C6225E
S1130390E064C42461005400435003514368002DB9
S11303A014D0041C883499000F51C2277A00821893
S11303B05768012199400F4357601F1C2037BF0025
S11303C03E51022D02D19568294391609E1C0199EA
S11303D0B4000133215043600020FEBD84040000BA
S11303E00000000038B5084B084C1D1CE01A8410AE
S11303F0002C06D0A1006A18043A13689847013CFF
S1130400F6E700F04DF838BDAC040000B00400007D
S113041070B50E4B0E4D0024E81A85101E1CAC421C
S113042004D0A100725890470134F8E700F02EF888
S11304300849094A0E1C541AA5100024AC4204D0E1
S1130440A300F05880470134F8E770BD9804000019
S11304509804000098040000A004000008B5034BB1
S1130460002B02D0024800F005F808BD000000008F
S1130470E503000008B5011C0020021C031CFFF763
S113048063FF08BD0800002043000000F8B5C04623
S1130490F8BC08BC9E4670475D04000021010000C2
S11304A0F8B5C046F8BC08BC9E467047F50000008D
S11304B0080000200000000000000000F4020020FA
S11304C05C030020C40300200000000000000000C2
S11304D00000000000000000000000000000000018
S11304E0000000000000000000000000880400007C
S11304F000000000000000000000000000000000F8
S113050000000000000000000000000000000000E7
S113051000000000000000000000000000000000D7
S113052000000000000000000000000000000000C7
S113053000000000000000000000000000000000B7
S113054000000000000000000000000000000000A7
S11305500000000000000000000000000000000097
S113056001000000000000000E33CDAB34126DE634
S1130570ECDE05000B00000000000000000000009D
S11305800000000000000000000000000000000067
S11305900000000000000000000000000000000057
S11305A00000000000000000000000000000000047
S11305B00000000000000000000000000000000037
S9030000FC
