:10000000A0190020BD330000B9330000B93300004F
:1000100000000000000000000000000000000000E0
:10002000000000000000000000000000B9330000E4
:100030000000000000000000B9330000B9330000E8
:10004000B9330000B9330000B9330000B933000000
:10005000B9330000B9330000B9330000B9330000F0
:10006000B9330000B9330000B933000000000000CC
:1000700000000000E50B0000F50B0000050C00007F
:10008000150C0000250C0000350C000000000000DD
:1000900000000000B9330000B9330000B93300009C
:1000A000B933000010B5064C2378002B07D1054B5F
:1000B000002B02D0044800E000BF0123237010BDD4
:1000C0000C00002000000000643F000008B5084B51
:1000D000002B03D00748084900E000BF0748036829
:1000E000002B00D108BD064B002BFBD09847F9E749
:1000F00000000000643F000010000020643F00008A
:10010000000000007A4BF0B54D4699465F464446E4
:1001100056460B234A46F0B413701433D373754B11
:100120004F46041C0D1CCB469846012683B00E3763
:10013000201C291C0A220023C047D0B2011C1A43EC
:1001400000D1CCE00023321C0A4053404908FAD1C8
:100150005A4253411B0103433B70201C291C0A22B5
:100160000023C047013F041C0D1C5F45E0D14B46F6
:100170009C7BDB7B5C404B465B7B5C404B461B7B4C
:100180005C404B46DB7A5C404B469B7A5C404B467E
:100190005B7A5C404B461B7A5C404B46DB795C40AB
:1001A0004B469B795C404B465B795C404B461B79E8
:1001B0005C404B46DB785C404B469B785C404B4652
:1001C0005B785C404B461B785C4000D18CE0231C84
:1001D00000220120011C19404A405B08FAD10F336C
:1001E0001C4053425A4112014B4622431A74802349
:1001F000414DDB00AB61414B14208027802698469F
:1002000005249847BF0076007820AF61013CC047C5
:10021000E4B2AE617820C0476E61002CF4D1802733
:100220008026354D0534BF0076007820AF61013C53
:10023000C047E4B2AE617820C0476E61002CF4D1B3
:100240004B461133019301239A462B4F5B461D7891
:1002500080239B000524994653462B4241D04B46B0
:100260007B61802678207600013CC047E4B2BE6105
:100270007820C0476D087E61002CEDD101239C469B
:10028000019BE3449B45E1D180271B4D0534BF0012
:100290007820AF61013CC047E4B2AE617820C0472E
:1002A0006E61002CF4D180278026134D0534BF00E9
:1002B00076007820AF61013CC047E4B2AE6178209F
:1002C000C0476E61002CF4D180220B4BD2005A61E2
:1002D00003B03CBC90469946A246AB46F0BD102305
:1002E00039E74B46BB61BCE7002410227CE7C046DF
:1002F00028000020D9370000004400413D030000E1
:1003000010B50020084B9847084CFA218900A047F7
:10031000074B1860FA218900A047064B1860052298
:10032000054B1A6010BDC04619310000D5340000DD
:10033000040000200000002010E000E030B5084B71
:100340001C68084A00258021490206E0002C04D0E0
:100350005460956013680B42FCD00138F6D230BD72
:100360000000002010E000E030B5084B1C68084A8F
:1003700000258021490206E0002C04D054609560DD
:1003800013680B42FCD00138F6D230BD04000020C7
:1003900010E000E00268138ADB0BDB039BB2002B4A
:1003A000F9D1704703689A7B920707D502229A73A6
:1003B0001B8A9B074120DB1718400AE01A8A520764
:1003C00006D55A68C02189020A435A60182000E005
:1003D0000020704730B5026800230124022504E0A4
:1003E00001339BB20189994207D9917B214206D101
:1003F000917B2942F4D0002002E0122000E000208E
:1004000030BDC046F0B55F4656464D464446F0B452
:1004100083B0061C894605684C880B885B00012266
:100420001343DBB22B75324B9847021C6968314B82
:100430000B406B60002A53D1301C2F4B9847019022
:1004400000284DD1013CA4B280462C4B9A462C4B3F
:100450009B4621E02B8A9B0641D5F37A002B09D0DD
:10046000002C07D16B688022D20213436B60013CE1
:10047000A4B211E0301CD84743465F1CBFB22B7EAC
:100480004A46526841465354301C194B9847013C28
:10049000A4B2002803D1B8465445DBD101E0B846E8
:1004A0000190B37A002B08D0301C154B98476B682D
:1004B000C022920213436B6007E0301C104B984738
:1004C0006B688022520213436B60301C0C4B9847C0
:1004D0002A7E4B465B6841465A54019800E0412011
:1004E00003B03CBC90469946A246AB46F0BDC04620
:1004F000D5030000FFFFFBFFA5030000FFFF000086
:1005000095030000F0B55F4656464D464446F0B4AC
:1005100083B0061C0F1C05684C88244B98473B8809
:100520005B00DBB22B75301C214B9847031E35D185
:10053000301C204B9847031E01902FD1A046002469
:1005400020339946194B9B46194B9A4610E02B8A4B
:100550004A46134221D0301CD8477B681B5D2B765E
:10056000301CD047002806D12B8A01345B0704D405
:100570004445ECD103E0019001E01E230193B37ADE
:100580000198002B0AD0301C084B98476B68C0229A
:10059000920213436B60019800E0412003B03CBC21
:1005A00090469946A246AB46F0BDC0469503000072
:1005B000D5030000A5030000F0B5474680B482B023
:1005C000071C0D1C161C3960081C464B98474649F1
:1005D0000A6A841C0123A34013430B6201A93379E7
:1005E0000B700D30C4B2201C404B9847201C404B70
:1005F0009847307900213F4B98472B681C209B0778
:100600006BD42B681738DB0767D414232B603C6846
:10061000201C344B9847804680236A461370002381
:100620005370012269468A70CB707069B5690028E1
:1006300003D1201C0021304B98476B4618700223D1
:100640006A465370000CC0B269462C4B9847002D87
:1006500004D1201C0121284B9847051C6B461D70B6
:1006600002236A465370280CC0B26946234B984750
:10067000B389FB80F3893B81327C8023002A04D13B
:100680001F4B9B789B07DB0FDB01B268002A00D071
:100690001343327F002A02D08022D2051343326AEC
:1006A000002A00D0134322681343236080235B0099
:1006B000636045460D35E8B2124B98473168FA231E
:1006C000DB0059434B1E18180F4B9847431F40201F
:1006D000FF2B02D8DBB26381002002B004BC90463D
:1006E000F0BDC0468908000000040040313200001F
:1006F000A5310000350700008107000059330000D4
:10070000002000417D320000D534000008B50123EF
:100710008372C372014B984708BDC04605040000B0
:1007200008B501238372C372014B984708BDC046C8
:100730000505000010B582B0041C0E4B1B78002B81
:1007400001D000290DD001A90C700C200A4B98474C
:100750000C200A4B9847074B5C7001221A7000204E
:1007600006E0044B5B78834201D01D2000E00020AE
:1007700002B010BD3C00002031320000A531000065
:100780002E4B98421CD003D82D4B984207D04AE0FC
:100790002C4B984225D02C4B984233D043E0012972
:1007A00006D0002941D0022906D0032906D001E055
:1007B000264841E000203FE025483DE025483BE059
:1007C000012906D0002932D0022906D0032906D0FB
:1007D00001E0214830E000202EE020482CE02048B5
:1007E0002AE0012906D0002923D0022906D00329B6
:1007F00006D001E01B481FE000201DE01A481BE066
:100800001A4819E0012906D0002914D0022906D07F
:10081000032906D001E016480EE000200CE0154840
:100820000AE0154808E0002006E0144804E0032030
:1008300002E0134800E013487047C046000C004235
:1008400000080042001000420014004203000500AE
:1008500003000600030007000300010003001E0060
:1008600003001F000300090003000A0003000B003F
:100870000300110003001200030013000300040032
:10088000030008000300100030B585B06A460E4B27
:1008900032CB32C21B681360031C009A82420FD015
:1008A000019A824208D0029A824207D00020039A1D
:1008B0009A4207D1033004E0012002E0022000E068
:1008C0000020C0B205B030BDD43C000010B51D4AB8
:1008D000D16904230B43D3611B4B2022FF321A83BF
:1008E0001A7D0523D2072BD502781202C021890078
:1008F0000A40141C4178C901FF22131C0B40221C22
:100900001A43C3789B041343827852001E210A4085
:10091000134302791204C02189020A4013430A4A90
:10092000536093685B035B0F084908249C400C806C
:1009300093684B8043780B71138BDB05DB0F1B0136
:10094000181C10BD00040040004000414000002081
:1009500030B5041C234A5088138843438B4206D287
:10096000182080229201204BCB18934238D81F4B7D
:100970005D688022D2022A435A602022FF321A8305
:100980001B7DDB0703D4194B5D60052028E0452C57
:1009900015D8A300164AD3589F46144B1B8BDB0572
:1009A00003D5124B5D6010201AE0890849000F4BF7
:1009B000D96108E0890849000C4BD96103E00B4B71
:1009C0005D6017200CE0A52000020443074B1C804B
:1009D000191C01220B7D1342FCD0044B5D600020EA
:1009E00030BDC0464000002000C07FFF00400041F5
:1009F000E43C0000F8B5244B1D885B886B43182449
:100A000083423ED36B1E03423BD1013C954238D317
:100A10001E4B1B7D123CDB0733D51D4C1B4B1C8032
:100A20001D1C01242B7D2342FCD02024FF34174BB6
:100A30001C834608002A1FD076000023571ECD5C79
:100A4000BB4201DBACB203E0CC18647824022C4337
:100A5000348002339BB202369A42F0D80A4B1B799B
:100A60000024002B0DD13F2A0BD8011C04200022AA
:100A7000084B9847041C04E0034B1B790024002B0F
:100A8000F3D0201CF8BDC0464000002000400041CB
:100A900044A5FFFF5109000070B5184B1D885B8805
:100AA0006B431824834226D36B1E034223D1013C9F
:100AB000954220D3124B1B7D123CDB071BD5202413
:100AC000FF340F4B1C834008002A13D04000002540
:100AD000561E2B181C88A4B22B041B0CCC54B342FA
:100AE00002DACB18240A5C700235ABB29A42F0D815
:100AF000002400E00024201C70BDC04640000020FF
:100B000000400041104B1A885B88534318218342F0
:100B100017D39200013A104213D10C4B1B7D1339AD
:100B2000DB070ED5094B2022FF321A8380084000D4
:100B3000D861074A1A80191C01220B7D1342FCD090
:100B40000021081C7047C0464000002000400041C2
:100B500002A5FFFF931C9B001950022A04D1027EBC
:100B60001023134303760CE0032A04D1027E2023D2
:100B70001343037605E0012393401A1C037E1A43B6
:100B8000027600207047C04638B58000144BC55827
:100B90002B689C7B2B7E1C406B7E1C40E30705D59D
:100BA000281CAB68984701232A689373A30705D5CF
:100BB000281CEB68984702232A689373E30605D53F
:100BC000281C2B69984710232A689373A30605D520
:100BD000281C6B6998472B6820229A7338BDC04641
:100BE000F008002008B50020014B984708BDC0461A
:100BF000890B000008B50120014B984708BDC0468D
:100C0000890B000008B50220014B984708BDC0467B
:100C1000890B000008B50320014B984708BDC0466A
:100C2000890B000008B50420014B984708BDC04659
:100C3000890B000008B50520014B984708BDC04648
:100C4000890B000030B587B00C4B6A4632CB32C2FC
:100C500032CB32C2009B834206D001239A00694600
:100C60005258824203D100E00023D8B203E001339E
:100C7000062BF3D1002007B030BDC046FC3D00007C
:100C8000F0B54F464646C0B489B0041C0E1C9046D1
:100C9000081C914B98478146904D291C183106A895
:100CA00006228F4FB847291C203103A80C22B847D1
:100CB0000023A360E36023616361237663764B4680
:100CC0009A00884BD450266043469B78082B04D169
:100CD00017204A46D20700D5F9E023713388052052
:100CE000DB0700D5F3E0F37B1730DB0600D5EEE041
:100CF00033889B0700D5EAE043461B7C002B0CD0D1
:100D000002A901238B700022CA704246127E0A702B
:100D10004B704346187D744B984743461B7F002B0E
:100D20000DD002A901238B700022CA704246526A7C
:100D30000A704B7043461B6AD8B26B4B98476B499D
:100D40000B6A4A46520003A8125A13430B624346E9
:100D50009B78082B06D10B6A4A4601325200125A80
:100D600013430B6201A943461B780B7006AB4A463E
:100D70009D5C281C5E4B9847281C5E4B9847434659
:100D800098881B8903434246907992781043184310
:100D900043465B78002B02D080231B011843216857
:100DA0007F22CB7B9343FCD130804346587B431E4C
:100DB0009841800043469B7B002B01D001231843C0
:100DC00021687F22CB7B9343FCD1FF333371002812
:100DD00005D021687F22CB7B9343FCD170714346C1
:100DE000987ADB7A002B01D01023184343461B7BF3
:100DF000002B01D02023184321687F22CB7B934313
:100E0000FCD1B07122687F21D37B8B43FCD1237945
:100E1000042B05D0082B41D01720002B57D124E0FC
:100E20007F21D37B8B43FCD128334246D35C337480
:100E300021687F22CB7B9343FCD129334246D35C8C
:100E4000337521687F22CB7B9343FCD12A33424602
:100E5000D35C337621687F22CB7B9343FCD12B3349
:100E60004246D35C7376002031E07F21D37B8B43F5
:100E7000FCD143461B8D338221687F22CB7B934379
:100E8000FCD143465B8D338321687F22CB7B934328
:100E9000FCD143469B8D7383002018E07F21D37BD8
:100EA0008B43FCD143469B6A336121687F22CB7B15
:100EB0009343FCD14346DB6AB36121687F22CB7B3D
:100EC0009343FCD143461B6BF3610020FFE709B05D
:100ED0000CBC90469946F0BD450C0000FC3D00005E
:100EE000C13C0000F008002059330000000400401D
:100EF00031320000A53100000268D17B1523C906FC
:100F000014D413889B070CD57F21D37B8B43FCD152
:100F1000138802218B43138000687D31C37B8B4390
:100F2000FCD1118801230B4313800023181C704748
:100F300010B582B0384A916910230B439361374B47
:100F40001B78DB091022002B62D1C3780732002BFB
:100F50005ED0017999425BD84179994258D82F4A9D
:100F6000137802218B431370D3795BB2002BFBDB28
:100F700043780022002B4BD0041C01A983780B700E
:100F80000120274B98470120264B98472378002BB8
:100F900002D00120244B9847E378013B2279002AB4
:100FA00009D01E490878042202430A702279013AC6
:100FB0001201134304E019490A78042082430A709D
:100FC0001649CA7952B2002AFBDBDBB2134A5370CE
:100FD0006379002B08D0111CCA7952B2002AFBDBBE
:100FE000013BDBB20D4A93702378002B05D00B4AEE
:100FF000117880230B43137004E0084A1178022310
:101000000B431370054AD3795BB2002BFBDB002244
:10101000101C02B010BDC04600040040001000408B
:1010200031320000A53100004D320000A522044BF2
:101030001A721A1CD3795BB2002BFBDB7047C046D7
:101040000010004010B5184C8EB0184B201C98476B
:101050000023002101AA13709370938013811362FF
:10106000536213859385203393719F335385BE3B21
:10107000137406335361023B51709172D172117334
:1010800091735173117793610949201C094B98475B
:101090007F212268D37B8B43FCD1118802330B4321
:1010A00013800EB010BDC0460C090020F90E0000E0
:1010B00000240042810C00007F2110B50A4C2268F8
:1010C000D37B8B43FCD1118802330B431380074B36
:1010D00098477F212268D37B8B43FCD10221138860
:1010E0008B43138010BDC04628090020690300000F
:1010F0000822024B9A61043A5A6170470044004149
:101100000822024B5A61043A9A6170470044004138
:10111000F0B557464E464546E0B49B4B8EB09847D7
:101120009A4DA847012301AC984663700223994663
:10113000A3700B230027E370201C954B27702771A9
:1011400067719847A847424602264846914B5A6025
:101150003F32995C3143C9B299548F4999628F49A2
:1011600099625860985C3043C0B298548C48986239
:10117000042099629860985C3043C0B2985408206B
:101180009860985C3043C0B2985410205860985CC6
:101190003043C0B2985483489862202099625860C6
:1011A0008146985C3043C0B298547F489862802052
:1011B00099629860985C3043C0B298548020400097
:1011C0009860985C3043C0B298548020800098604A
:1011D000985C3043C0B298548020C0009860985CFE
:1011E0003043C0B29854802000015860985C30436E
:1011F000C0B298546D489862996280218902596002
:10120000995C6B483143C9B299546A4998629962B2
:10121000802149029960995C3143C9B29954802177
:1012200009049960995C3143C9B299548021C9037A
:101230005960995C3143C9B299545F499862996287
:10124000802189045960995C0E43F6B29E545B4A32
:1012500098629A62A8475A4B00269A46181C594B26
:1012600098474B46A371584B221C6385434623770E
:1012700019232362143B267463625449544B6761FB
:10128000A76150466670A672E6722673A6736673EF
:101290002770A770A78027812785A7859847A8472B
:1012A0004C4B26705B68201CDB061B0FA3704A4B5F
:1012B000E670267166709847484C494EFC20211C08
:1012C00080014022B0470528F8D0A847211C231CE4
:1012D000403102E001338B4209D01A78FF2AF9D05D
:1012E000A8470EB01CBC90469946A246F0BDFC2013
:1012F000211C80014022B0470528F8D0A847572379
:101300006370384B9846FC208001C0470528FAD00E
:10131000A847354FFC20211C80014022B8470528F2
:10132000F8D0A847FC20211C80014022B0470528A6
:10133000F8D0A84741232370FC208001C04705282E
:10134000FAD0A847FC20211C80014022B84705287C
:10135000F8D0A847FC20211C80014022B047052876
:10136000F8D0A8471A23A370FC208001C0470528A5
:10137000FAD0A847FC20211C80014022B84705284C
:10138000F8D0A847ACE7C046010300002D100000CC
:10139000310F00000044004101000250000002D063
:1013A00002000250100002502000025000080250BB
:1013B00000000250020002D0400002D0000202D021
:1013C00028090020F90E00006F17000000340042C9
:1013D000810C000000400041CD08000048000020C2
:1013E000990A0000050B0000F5090000F8B501237B
:1013F0004F4646469846FF33C0B40024354E364F1C
:1014000099460BE07B610A20B04742463B6A5B0C81
:101410001340AB420FD00134102C51D045464B46FF
:101420002540EFD0BB610A20B04742463B6A5B0CC7
:101430001340AB42EFD10123984680239B00002448
:10144000254F99460BE07B610A20B04742463B6A34
:101450005B0C1340AB420FD00134102C35D0454605
:101460004B462540EFD0BB610A20B04742463B6A5D
:101470005B0C1340AB42EFD1174B002498468023FE
:10148000DB00012799460BE05A610A20B04743462A
:101490001B6A5B0C3B409D4210D00134102C16D0CF
:1014A0003D1C434625404A46EED09A610A20B0478B
:1014B00043461B6A5B0C3B409D42EED1032000E09B
:1014C00001200CBC90469946F8BD0220F9E70020A7
:1014D000F7E7C0466903000000440041F0B5474605
:1014E000A24B80B49847012800D1E8E0002800D141
:1014F0009DE0022853D003284ED19D4D9D4EFC20E7
:10150000291C80014022B0470528F8D09A4CA047FA
:10151000AB78222B00D11AE11A23984A1370FC20D1
:10152000291C80014022B0470528F8D0A0476B78DD
:10153000412B00D10DE15722914B1A70914BA932EA
:101540005A610132FF325A618022D2005A61082763
:10155000042696208B4C4000A7618B4D6661A847FE
:101560007F216761A661894C2368DA7B8A43FCD1BD
:10157000198802320A431A80FA20A8477F2123687B
:10158000DA7B8A43FCD102211A888A431A80082216
:101590007C4B9A61043A5A6104BC9046F0BD744D8C
:1015A000744EFC20291C80014022B0470528F8D049
:1015B000714CA04757236B70754B9846FC208001F7
:1015C000C0470528FAD0A047724FFC20291C800193
:1015D0004022B8470528F8D0A047FC20291C8001EC
:1015E0004022B0470528F8D0A0472223AB70FC204A
:1015F0008001C0470528FAD0A047FC20291C8001A3
:101600004022B8470528F8D0A04708227F215D4B2B
:101610009A61043A9A615D4B1B68DA7B8A43FCD17C
:10162000198802320A431A80A047A047FCE7504DB0
:10163000504EFC20291C80014022B0470528F8D0DC
:101640004D4CA04741236B70514B9846FC208001C4
:10165000C0470528FAD0A0474E4FFC20291C800126
:101660004022B8470528F8D0A047FC20291C80015B
:101670004022B0470528F8D0A0471A23AB70FC20C1
:101680008001C0470528FAD0A047FC20291C800112
:101690004022B8470528F8D0A04708227F21394BBF
:1016A0009A61043A5A61394B1B68DA7B8A43FCD150
:1016B000198802320A431A80A047A047FCE72C4D44
:1016C0002C4EFC20291C80014022B0470528F8D070
:1016D000294CA04757236B702D4B9846FC20800166
:1016E000C0470528FAD0A0472A4FFC20291C8001BA
:1016F0004022B8470528F8D0A047FC20291C8001CB
:101700004022B0470528F8D0A0471A23AB70FC2030
:101710008001C0470528FAD0A047FC20291C800181
:101720004022B8470528F8D0A04708227F21154B52
:101730005A61043A9A61154B1B68DA7B8A43FCD1E3
:10174000198802320A431A80A047A047FCE72223E7
:10175000E3E60B4A137080220A4B52005A6192183A
:101760005A618022D2005A61F1E6C046ED130000B2
:1017700048000020990A00002D10000044090020B4
:1017800008090020004400416903000028090020E6
:10179000050B0000F509000038B50A4C0A4DFC2085
:1017A000211C80014022A8470528F8D0074B984704
:1017B00023780020463BDBB20A2B01D8044AD05CD8
:1017C00038BDC04648000020990A00002D100000D6
:1017D000283E0000F0B557464E464546E0B45D4B06
:1017E0008EB01E68041C0D1C171C002E2FD05A4BE7
:1017F000188A80B2002800D172E0584B8002584904
:101800009847584E33689C46574B60443060984226
:1018100000DD7BE07F2155480268D37B8B43FCD100
:1018200002241188A14311807F214B4A1382504B1F
:1018300013830268D37B8B43FCD1118802330B43A3
:1018400013800EB01CBC90469946A246F0BD012103
:101850001960002301AA53709372D37213739373A8
:101860001374137720239371E023DB009380404BA4
:10187000517353859A463D4B56619946364B966156
:101880009846191C166256623A4B48461670967076
:101890001681168596859847434652461E821A83BE
:1018A0004B467F211A68D37B8B43FCD111880233CE
:1018B0000B431380304B9847304B1B78412B3AD069
:1018C000572B04D1201C291C3A1C2D4B9847322041
:1018D0002C4B98472C4B98470022224B1A60B0E7BC
:1018E000254B9847254B1B78412B29D0572B04D1EA
:1018F000201C291C3A1C224B98473220214B984728
:10190000214B98470022174B1A6083E71A4B9847E0
:101910001A4B1B78412B18D0572B04D1201C291CA3
:101920003A1C174B98473220164B9847164B98474E
:10193000002333606EE7201C291C144B9847C6E730
:10194000201C291C114B9847D7E7201C291C0F4B42
:101950009847E8E7A800002000280042F53500007D
:1019600080BB0000A4000020B70B0000880000200E
:10197000ED360000810C0000011100000809002074
:10198000012A0000B9100000F1100000050100005C
:10199000F0B55F4656464D464446F0B483B08146A6
:1019A0000E1C151C04204221B64CA0470520002126
:1019B000A0470A208021A0470120B34B98474B46FF
:1019C0000C2B0BD10333011C99430C200143C9B2EA
:1019D0000120AC4B9847AD4B1D6014E0F023011C77
:1019E00019400120A74B9847A84B1D604B460F2B71
:1019F0005AD89B00A64AD3589F46012398462325D0
:101A000022339A4609E001239846232522339A4639
:101A100003E00023984600259A4602209A4CA047EE
:101A200053461843C1B20220964FB8470320A0473F
:101A3000011C0320B847954B1B68DB78002B0CD0AA
:101A40000024904B9B46914F315D0920D8470134CB
:101A5000E4B23B68DB78A342F6D84B460C2B05D1A9
:101A60000D20012180228B4B9847AFE00120864B4F
:101A700098470F23011C99434B461943C9B20120D3
:101A8000804B9847A2E00420B84781460520B8471C
:101A9000013C002C02D04B461D42F4D04B461D4069
:101AA000DB0700D595E0A0E0022000210022794C60
:101AB000A047032000210022A04742250423FF3332
:101AC0000193C5E0714F3B6898460A206E4CA047D1
:101AD000434618710C20A0473B6807221040D8806D
:101AE0000620A047041E3CD006230193030705D41B
:101AF00000230193830701D503230193E30700D556
:101B000098E0E30600D598E0630717D55F4B1B68A4
:101B10001A7902210191012A00D096E0DB88033274
:101B2000934300D08CE00920574B98473070574BB7
:101B30001B6801221A71230670D565E0630600D583
:101B400081E0230660D4019B002B60D00620002199
:101B50004C4B98476B4604229B5E4F4A934277D08A
:101B600001E000230193494B1B681B79002B6FD0C8
:101B70000024454B9946454B984637190920C847DC
:101B800038700134E4B243461A681379A342F4D89A
:101B9000D18800295CD0002B5AD0013B137157E04B
:101BA00000239846402541339A4636E7002398465D
:101BB000132513339A4630E70420334CA04781465F
:101BC0000520A047802464002F4F64E7002DF3D147
:101BD0000BE00220002152462E4CA047032000219A
:101BE0000022A0470123019332E002200021524647
:101BF000284CA047032000210022A0474346002B89
:101C000000D05FE7019323E00D23019301E00C2353
:101C10000193062000211B4B9847A4E706200021D2
:101C2000184B98471C4B019312E006200021154BDE
:101C3000984798E70B23019307E00923019304E0F9
:101C40000223019301E0154B01932306EDD5DBE759
:101C50000420291C0B4CA04705200021A0470A2086
:101C60008021A04704200121A0470D200021A0478A
:101C70006B460420185E03B03CBC90469946A246D1
:101C8000AB46F0BD0D2100003D210000AC0000205E
:101C9000343E00008D21000002020000047E00009E
:101CA00038B56421124B9847041E124B9C421BD836
:101CB0002A2001218022104B98472B20A6210F4D6E
:101CC000A8472A200E4B9847F023011C1940EE3BF1
:101CD00019432A20A847E1B22D20A847240AE1B2DF
:101CE0002C20A847002001E00220FF3000B238BDC0
:101CF000D5340000FE0F00008D2100000D210000F2
:101D00003D210000F0B5474680B401200F21304C42
:101D1000A04715204021A0472C20AA21A0472C2015
:101D20002C4B984698470820002108222A4DA847A6
:101D30001220C0470827011C3940802676423143D3
:101D4000C9B21220A0471320C047391C01403143BB
:101D5000C9B21320A04719206D21A0472620482191
:101D6000A04718205521A04724202621A04727203E
:101D7000F421A04719481A4B984714200121032247
:101D8000A8470C2001214022A847124D012404201D
:101D9000A8470442FBD0042001210D4CA0470F4866
:101DA0000F4DA8470B201A21A04716201021A0474D
:101DB00017208721A04701200021A047FA20C0005A
:101DC000A8473820CD21A04704BC9046F0BDC046AE
:101DD0000D2100003D2100008D210000881300002E
:101DE000A11C000010B5041C01200F21034B9847D3
:101DF000201C034B9847034B984710BD0D21000052
:101E000069030000051D0000F8B5071C0D1C082023
:101E100000210822204CA0470E2080211F4EB047F1
:101E2000122000218022A047132000218022A047F9
:101E30000D200721B0471A4C002323706370A37054
:101E40002371E3802372174E37700123E370C8209B
:101E50004000154B98470C20311C221C134B98470F
:101E6000C4B2002C01D0062C0DD10D4B1B79022BD6
:101E70000DD10B4BDB88002B0BD1281C094902220A
:101E80000B4B984706E000232B706B7002E00B248D
:101E900000E00B2420B2F8BD8D2100000D210000D0
:101EA0008809002048090020A11C000091190000A9
:101EB000C13C0000F0B55F4656464D464446F0B47E
:101EC00083B083460D1C171C5E4B00229A70DA709B
:101ED0001A715A719A711220002180325A4CA0470F
:101EE000132000218022A0470E200021574B984745
:101EF000544B9846564B023B99465B46019387E00C
:101F000007242C40EB08221C511E8A4192469A4419
:101F10004246694609791170221C20321B01D318F0
:101F2000424653705346002B0CD03A1C484B514646
:101F3000481EC0B203304844117819700132013391
:101F40008342F9D1210121430D20404B9847414E56
:101F5000002333707370B3703371F3803372534660
:101F60000233F3703C483D4B98470C203549321CF6
:101F70003B4B9847062801D000284FD1354BD988D4
:101F80001A79D3005B181B1BDBB29C465B19282B0C
:101F900046DC002902D001322E4B1A710026002C9B
:101FA00008D05346013BFB181978264A12780A4399
:101FB0001A700136D34604245346E41A002C11DD6E
:101FC000002200231F498A465946834650468019FD
:101FD000805CBA1850540133DBB21A1EA242F5DB02
:101FE000584600E00022062802D16544EDB20FE019
:101FF000B446061C78783B785840BB785840F9784E
:10200000104B63449A5C031C4B409A420AD10AE08D
:10201000202D00D874E70226FF3604E0061C02E0FB
:10202000042600E00F4E0D200021084CA0470E2092
:102030008021A04730B203B03CBC90469946A246EE
:10204000AB46F0BD480900208D2100000D210000A5
:102050004A0900208809002010270000A11C000068
:102060009119000001050000F8B5071C0C1C151C97
:10207000122001218022204EB0471320012180220E
:10208000B0471E4B1F7070225A7000231B48E15C42
:102090001A1891700133042BF9D1184E6278237805
:1020A0005340A2785340E2785340B371144C00235C
:1020B00023706370A3702371E38023720723E3709E
:1020C000FA20C0000F4B98470C20311C221C0E4BED
:1020D000984700280ED10A4B1B79012B07D1084BDA
:1020E000DB88002B05D1054B1B782B7002E0042008
:1020F00000E0042000B2F8BD8D2100004809002056
:1021000088090020A11C00009119000000B585B0CD
:102110006B461870597001A928230B806B464B60E1
:1021200002234B8000230B724B720248024B9847EC
:1021300005B000BD940900202107000070B58AB0E9
:102140006B46D871073307A9282008804B6001220D
:102150004A8000230B724B7204AC20800F256D4423
:102160000595628023726372054E301C054B9847BB
:10217000301C211C044B984728780AB070BDC0461B
:1021800094090020210700000D07000070B5041C11
:102190000E1C151C064B9847002E02D02843C1B2D6
:1021A00001E0A843C1B2201C024B984770BDC04655
:1021B0003D2100000D21000030B5154B15491C6A6A
:1021C00001230888144A1C4090421ED9134A1370F8
:1021D00000230B80124B1A780132D2B21A701A788F
:1021E000012A01D900221A7001251B780A885B0098
:1021F00008882A409B185B0242089B18094A9C5495
:102200000B8801339BB20B8030BD054BECE7C04619
:1022100000440041B4080020FF030000B00000208B
:10222000B1000020B4000020F0B55F4656464D4690
:1022300044460023F0B495B006AA9380C022D20091
:102240009446089309930C930D930E930F93109358
:102250001193129313930A930B93334B6344059397
:10226000324B9847324B1B78002BFBD02F4B9847B3
:1022700000222F4B10AF1A70059B9A4607AB9B4666
:102280000CAB99465A460023C846D3469946924617
:10229000284E5E4415E053461B7834780025012B08
:1022A0001BD0002B00D1F4E1022B49D0032B00D02E
:1022B000EBE102235246137001363C607D60B3456A
:1022C00020D01D4B1B78002BE5D01C4B0025F318AC
:1022D0001C7853461B78012BE3D13B68A34200D105
:1022E00004E208214A4606AB08205B1849469B5881
:1022F00006AA009312180133013653503C607D60EA
:10230000B345DED180239B009C460123E3449C46D9
:102310000333E2449C460433E1449C464B46083771
:10232000E044082BB4D19BE7B40000202D1000003E
:10233000B000002000FEFFFFB100002000FCFFFF06
:102340003B68A34200D1B0E143461A685B6892182B
:102350005B4103920093012C00D114E241460CC171
:1023600003235246102113704A4606AB10205B1817
:1023700049469B5806AA0293121801335350402B2A
:102380009AD10099039BCA065B09134348091F228F
:10239000191C94461140C74A89005158002900D1A0
:1023A00073E1C00600995B0903436246880A191C61
:1023B0001140C04A89005158002900D165E1C0068A
:1023C0005B0903436246181C1040BA4A800000991A
:1023D0001058C90B002800D157E1C9065B090B430F
:1023E00000996246080D191C1140B24A89005158E3
:1023F000002900D149E1C00600995B090343624608
:10240000480E191C1140AB4A89005158002900D1CF
:102410003BE1C0065B0903436246181C1040A54A15
:10242000800000991058890F002800D12DE1C906BD
:102430005B090B43101C191C62461140890041586E
:10244000002900D121E15909114089004158002992
:1024500000D11AE19B0A1A4092008258002A00D14A
:1024600013E19B05DB0E9B00C358002B00D10CE150
:10247000914A0098039B914910401940031C42085F
:102480008F4802409A1A101C8E4B92081A4018402E
:10249000101802908A484A080240891A0A1C8908C2
:1024A0001A40194088180490039A874800991040F0
:1024B000864A11408C464A0881490A4061468A1A78
:1024C000111C92081A40944619408C447C494208D9
:1024D0000A40801A021C6146800818401A4082187F
:1024E0000809011C7A4861440140080241180804A7
:1024F0000818010E1009821875480240100282184F
:1025000010041018000E081802998C460A09704928
:1025100062440A4011028A1811045218110E049ADA
:102520000291944611096A4A614411400A02511805
:102530000A048A180299120E8C4601216244024351
:10254000114200D0A1E0039A624900981140624A0A
:102550008C4610405A4942080A40821A101C9208C0
:102560001A4018401018624652080A406146891AFB
:102570000A1C89081A40194089180491039A57497E
:10258000029011408C46564A00984D49104042082E
:102590000A40821A101C6146920818401A4012180C
:1025A0004808474908406146091A081C890818402C
:1025B00019400B181809C3180298110984468A1883
:1025C00043490A4011028A18110451180A0E404961
:1025D00019400B025B181904591803093C4863445D
:1025E000184003021B1818041818049B090E9C4677
:1025F00051181A09364B62441A4013029A181304F0
:10260000D318000E1B0EC0180143012008423CD114
:102610000123039A1A4238D1009B5B025B0A1343E1
:1026200033D0101C0099520DCB021A43890683093E
:102630000B430F210B40191C009B120311435A0539
:10264000C30A1343FF221B0113400A1C1A43009BB9
:102650001904030C0B430F210B401902009B0A4382
:1026600091B25A00C30F1343009A800E9201104397
:10267000021C0F201B0110400343D8B2194B000469
:1026800008181A780021184B9847534600221A70F0
:1026900012E6002C00D00FE63B687A68134300D0A6
:1026A0000AE6534601221A7006E67B68002B00D02A
:1026B0004AE6EAE7743E000010420800420821841E
:1026C0005555555533333333841042082184100057
:1026D0000F0F0F0F0821841042082100104208211B
:1026E0008410420044090020D51700007B68002BAD
:1026F00000D0F6E508214A4606AB5B189B58102B24
:102700003ADD40460021002201604260102006AA06
:1027100012184946002001335B105050191C00224A
:102720000023844600920193002922DD081C0297B1
:102730006146271CAC460396141C1D1C0126A418D8
:102740005D4101312643321C2B1C8142F4D10092A1
:102750000193654610238C4606A9C918484663466E
:102760000B5043460099019A19605A603C1C039E25
:10277000029F022352461370082106AB5B184A469B
:102780000021995098E5211C4046114303910160B6
:102790004360E5E570B5002500248EB0244EB047B7
:1027A000244B1D70244B1D80244B1C70244B9847D8
:1027B000202301AA1470947054709472D47214730C
:1027C000947354731474147793711E4C1E4B55619B
:1027D00053859561156255621C491D4B201C9580DF
:1027E00015811585958598471A4902221A4B201C98
:1027F00098471A4B206898471F22194B7F211B5C72
:1028000013401E3A9A40131C164A13601023627E2E
:1028100013436376102322685373D37B8B43FCD11D
:10282000118802330B431380B0470EB070BDC04611
:102830002D100000B1000020B4080020B0000020DE
:1028400045100000B8080020FF170000002C0042CF
:10285000810C0000B9210000550B0000450C000060
:10286000F43E000000E100E0642370B58AB06A46DF
:10287000009300231371137480226946920302921D
:1028800001220B770893D7338B84194B5242CB81AB
:10289000184B194C0593194B194D8A810693201C2E
:1028A00018496A46A8470028F9D12268138ADB0B29
:1028B000FCD1116802330B431360E488002310201D
:1028C00002E00133A34210D2118A0842F9D08026D7
:1028D0000D4D76020D4C6E616420A0476420AE6100
:1028E000A0470B4B98470AB070BD10231382EEE748
:1028F00010270000020016009409002002001700B3
:10290000B9050000001400420044004169030000C2
:10291000051D0000F0B55F4656464D464446174B30
:10292000F0B49A46164B0B259946164B0A279B4640
:10293000154BFF26984687B06D4404AC6F440520C4
:102940002E70D0470097262003A9221C2B1CC847B5
:10295000002801D0C047F2E72378002118066378E9
:102960001B04C318E0781B18A078000218185B46F7
:102970001A78064B9847C047E1E7C046E51D0000BE
:1029800091290000440900202D100000D5170000F7
:1029900038B5141C1D1C174B9847031E27D19330C4
:1029A0000021221C144B9847031E20D19330211C78
:1029B000049A124B9847031E19D1049B1B785B079E
:1029C00012D5043495300021221C0B4B9847031E6E
:1029D0000DD19530211C049A084B9847031E06D14F
:1029E00008232B70031C02E004232B70002318B271
:1029F00038BDC046091E0000B51E00006920000059
:102A0000F8B55F4656464D464446F0B41A2A60D0A3
:102A1000222A2DD0541EE4B263B2002B53DB804631
:102A20000D1C2022404E9146012714E03F4B9A4650
:102A300080239B009B4653465A4664209A61B047C8
:102A400053465A46FA20013C5A61C000E4B2B047EE
:102A500063B2002B37DB202252429A1829D42B1C58
:102A6000D3403B42E2D1314B9A4680235B00E1E701
:102A7000061C00270025030C06D00120011C19406C
:102A80004D405B08FAD16D0033041B0C47D0002485
:102A90000121081C184044405B08FAD10120A043E2
:102AA000B6197F41304380463D43541EE4B263B2C1
:102AB000B7E74A46291CD21A91400A1C4146D94020
:102AC0000B1C1343CDE73CBC90469946A246AB464F
:102AD000F8BD00230002060A300B9C460027031EA7
:102AE00009D000200124211C194048405B08FAD17C
:102AF000C3099C46400633051B0D12D00024012556
:102B0000291C19404C405B08FAD10133A343B61984
:102B10007F4165463043184380463D43C5E7012069
:102B2000BEE70123F3E7C0463D0300000044004137
:102B30007047C0460C4B1B68002B10D1EFF310837D
:102B4000002B09D172B6BFF35F8F0022074B1A70BA
:102B50000132074B1A7002E00022054B1A70024A3C
:102B60001368013313607047D40800200800002068
:102B7000D8080020084B1A68013A1A601B68002B1D
:102B800009D1064B1B78002B05D00122044B1A708B
:102B9000BFF35F8F62B67047D4080020D8080020CA
:102BA0000800002008B5072803D88000174B1B58E1
:102BB0009F46002028E0164BD86825E0154B186A80
:102BC0008005800F144BC340181C1DE0104B186982
:102BD0001AE00F4B1B680220184015D00D49102237
:102BE000CB681A42FCD00A4B1B685B070BD5002050
:102BF0000A4B9847064B9B681B041B0C584303E089
:102C00008020000200E0064808BDC046FC3E0000EF
:102C1000DC0800200008004000127A007D3200002D
:102C2000006CDC0270B50C4C236A01788578427820
:102C30000120024092014026B3431343021C2A4064
:102C4000D2017F308343134303220A401202034917
:102C50000B401343236270BD00080040FFFCFFFFE0
:102C6000F0B5474680B4021C284B198A4D056D0FFC
:102C700043780F241C40067873425E41F6B2837895
:102C8000002B18D14068224FB8420DD9214FB842CD
:102C90000CD9214FB8420BD9204FB8420AD9204F46
:102CA000B84208D8042506E0002504E0012502E02A
:102CB000022500E00325577A107A80465268944630
:102CC000184A6046D0600122B60004208143314397
:102CD0004046104080014026B1430143381C10405B
:102CE000C0014036B14301432D020F480140294342
:102CF0001340DA020D4B0B40134324031B051B0D3D
:102D00002343024A138204BC9046F0BD00080040F1
:102D100080841E0000093D0000127A000024F400A7
:102D200080C3C901DC080020FFF8FFFFFFF7FFFFA9
:102D300010B5264B9B691B051B0F022B09D8027A85
:102D40001202F82149010A40817A0A4320494A6067
:102D500008E0027A9206110C42899205920D0A430C
:102D60001B494A60848842881443C27981790A43A6
:102D700022434178C9010A4315490A600278042AAE
:102D800023D1022B10D8037B1B06F82252051340D7
:102D9000191CC3891B04FF22120413400B43028A2F
:102DA00013430B4A93600BE0037B9B06028A134399
:102DB000191CC3891B04074A13400B43044A936040
:102DC000034A116804230B43136010BD0020004127
:102DD000DC0800200000FF03072803D880001E4BFA
:102DE0001B589F46172036E01C4A116A02230B43EA
:102DF000136200202FE0194A916902230B4393616B
:102E0000002028E0154A118A02230B431382002078
:102E100021E0124A918A02230B43938200201AE098
:102E20000F4B196802220A431A601A680D4B1340AF
:102E30000A4A9384111C1022CB681A42FCD0084A1B
:102E40009168064BD96251689962126892B29A846D
:102E5000002000E0002070471C3F000000080040F8
:102E6000DC0800207FFF0000F0B5474680B48CB03E
:102E7000C222D200514B9A6051494B681E229343A3
:102E80001C3A13434B6003236A46137000244D4DD4
:102E9000E0B26946A84701341C2CF9D109A80025E5
:102EA00005701B3C847044720F234370464B436093
:102EB0000472464B98470020454B984704AB0022CC
:102EC0005D809D809A71DA710721197238315981BC
:102ED0001C73DC8139391982023919705A703D4BE3
:102EE0009B691B051B0F022B07D93B4B1B689B0ED5
:102EF0003F2B00D1203B04AA137204A8C023DB009F
:102F00000382072303733833C381344B984703A8E4
:102F100000244470012585700470314B98470620C9
:102F20002B4EB0472F4B98476B465C705C721C7001
:102F300080235B0001936B461D72012069462A4B7A
:102F4000984698470120294FB8476B465C705C72E1
:102F500004236A4613701C330193157202206946DC
:102F6000C0470220B8476B461D7000206946154BCC
:102F7000984700201E4B98470720B0470F49D022A2
:102F8000CB681340D02BFBD11A4A00231372537223
:102F90009372D372012201926A4653701372537274
:102FA00007331370002069460F4B984700200F4BE2
:102FB00098470CB004BC9046F0BDC04600080040E5
:102FC000004000413132000000127A00612C000004
:102FD000D92D00000020004124608000312D000028
:102FE000252C0000F92F00001D300000D530000016
:102FF000A531000000040040064A916908230B43F4
:1030000093610122044B1A70191C0B781342FCD1F6
:103010007047C04600040040000C004070B5061C1C
:10302000041C0D782D0205434B78002B02D0802321
:10303000DB021D434B7A002B02D080231B031D4370
:103040004868012818D9431E184210D1022806D911
:103050000223002201325B009842FBD800E00022EC
:1030600012023243141C80235B031D4304E004025C
:10307000344380239B021D430B7A002B02D0802314
:103080009B031D430F4A53785BB2002BFBDB0E4BB7
:1030900098470E4B1E700B4A53785BB2002BFBDB3C
:1030A000084B9C601A1C53785BB2002BFBDB054A73
:1030B000516880235B020B401D435560044B9847C9
:1030C00070BDC046000C0040352B0000080C0040CD
:1030D000752B000010B5041C0B4A53785BB2002B13
:1030E000FBDB0A4B98470A4B1C70074A53785BB2CC
:1030F000002BFBDB044A5368802149020B435360D9
:10310000044B984710BDC046000C0040352B000012
:10311000040C0040752B000070B5041C1A4A53784B
:103120005BB2002BFBDB194B9847194B1C70164AFE
:1031300053785BB2002BFBDB134E7068C004C00EEB
:10314000144B9847051C124B1C707668F602F60F5C
:10315000114B1C700C4A53785BB2002BFBDB0A4B03
:103160009C68240AA4B20D4B9847002E07D1012C6D
:1031700007D9281C211C0A4B9847051C01E0013483
:10318000E540281C70BDC046000C0040352B0000F7
:10319000040C0040A52B0000080C0040752B00001B
:1031A000D534000010B5041C064B9847064B1C7024
:1031B000064A51888023DB010B435380044B984718
:1031C00010BDC046352B0000020C0040000C004032
:1031D000752B000010B5041C0F4B98470F4B1C704B
:1031E0000F4B5A881205100F59880E4A0A405A8010
:1031F00059880D4A0A405A80191C8022D2014B88F6
:103200001342FCD1064902024888064B034013438F
:103210004B80064B984710BD352B0000020C004038
:10322000000C0040FFF0FFFFFFBFFFFF752B000009
:1032300010B50C7824020443024B9847A4B2024B09
:103240005C8010BDD5310000000C004010B5041C9E
:10325000064B9847064B1C70064A5188C0231B0238
:103260000B435380044B984710BDC046352B0000DC
:10327000020C0040000C0040752B000010B5041C2F
:10328000064B9847064B1C70064B5C882405240FA0
:10329000054B9847201C054B984710BD352B000067
:1032A000020C0040000C0040752B0000193100009A
:1032B00030B5D378002B1ED11478802C04D024068E
:1032C00080235B021C4300E0002453780225AB43BB
:1032D0000AD19378002B03D180239B021C4302E088
:1032E000C023DB021C4341605378013B012B12D801
:1032F000184B1C400FE041600B041B0CA024E4059C
:10330000234383620B0CD024240623438362D378A7
:10331000002B18D01CE00B041B0CA025ED052B4343
:10332000234383620B0CD0252D062B43234383625A
:10333000D378002B0CD1630305D59378012B01D1F1
:10334000816100E041615378013B012B00D881602D
:1033500030BDC046FFFFFBFF08B5031C0A1CC109B6
:103360000020002904D15809C00105498C46604459
:103370001F210B401E399940024B984708BDC0469B
:1033800000440041B13200007047C04608B5054B0B
:103390009847054B9847054B9847054B9847054B71
:1033A000984708BD692E0000312B000089330000CA
:1033B0008933000089330000FEE7C04610B51D4B7D
:1033C0001D4A9A4203D01D4B1A4A9A4204D31C4B01
:1033D0001C4A9A4210D31EE01B4A184B03339B1A17
:1033E0009B0801339B000022124813498C588450DB
:1033F00004329A42FAD1EAE7144A114B03339B1A7A
:103400009B0801339B0000220E4800211418216004
:1034100004329A42FAD10E4AFF210E4B8B4393603D
:103420000D4A516880230B4353600C4B98470C4B5B
:103430009847FEE700000020643F00000C000020D9
:10344000A00900200C000020040000201000002033
:1034500000ED00E00000000000400041753C00006D
:103460006534000008B5104B9847104B9847104B37
:103470009847104B984700280FD0032805D10E4BD2
:1034800098470E4B98470E4B9847BFF34F8F0D4A06
:103490000D4BDA60BFF34F8FFEE70C4B9847074B9D
:1034A00098470B4B9847F0E78D330000111100004F
:1034B000DD14000099170000692800002D1000009D
:1034C000152900000400FA0500ED00E09527000032
:1034D00029220000002243088B4274D303098B4247
:1034E0005FD3030A8B4244D3030B8B4228D3030CD4
:1034F0008B420DD3FF22090212BA030C8B4202D376
:103500001212090265D0030B8B4219D300E0090A9D
:10351000C30B8B4201D3CB03C01A5241830B8B42A6
:1035200001D38B03C01A5241430B8B4201D34B038F
:10353000C01A5241030B8B4201D30B03C01A5241F4
:10354000C30A8B4201D3CB02C01A5241830A8B4279
:1035500001D38B02C01A5241430A8B4201D34B0262
:10356000C01A5241030A8B4201D30B02C01A5241C6
:10357000CDD2C3098B4201D3CB01C01A524183097A
:103580008B4201D38B01C01A524143098B4201D3B4
:103590004B01C01A524103098B4201D30B01C01ADF
:1035A0005241C3088B4201D3CB00C01A5241830859
:1035B0008B4201D38B00C01A524143088B4201D386
:1035C0004B00C01A5241411A00D2014652411046E6
:1035D0007047FFE701B5002000F0FCF802BDC046CF
:1035E0000029F7D003B5FFF775FF0EBC4243891AD7
:1035F0001847C04603460B437FD4002243088B4242
:1036000074D303098B425FD3030A8B4244D3030B69
:103610008B4228D3030C8B420DD3FF22090212BA2E
:10362000030C8B4202D31212090265D0030B8B42AA
:1036300019D300E0090AC30B8B4201D3CB03C01A94
:103640005241830B8B4201D38B03C01A5241430B6F
:103650008B4201D34B03C01A5241030B8B4201D35F
:103660000B03C01A5241C30A8B4201D3CB02C01ACA
:103670005241830A8B4201D38B02C01A5241430A42
:103680008B4201D34B02C01A5241030A8B4201D331
:103690000B02C01A5241CDD2C3098B4201D3CB01D8
:1036A000C01A524183098B4201D38B01C01A524187
:1036B00043098B4201D34B01C01A524103098B428B
:1036C00001D30B01C01A5241C3088B4201D3CB0076
:1036D000C01A524183088B4201D38B00C01A524159
:1036E00043088B4201D34B00C01A5241411A00D209
:1036F00001465241104670475DE0CA0F00D0494272
:10370000031000D34042534000229C4603098B42E1
:103710002DD3030A8B4212D3FC22890112BA030A69
:103720008B420CD3890192118B4208D389019211EB
:103730008B4204D389013AD0921100E08909C30970
:103740008B4201D3CB01C01A524183098B4201D372
:103750008B01C01A524143098B4201D34B01C01A5D
:10376000524103098B4201D30B01C01A5241C308D5
:103770008B4201D3CB00C01A524183088B4201D344
:103780008B00C01A5241D9D243088B4201D34B005F
:10379000C01A5241411A00D20146634652415B10A1
:1037A000104601D34042002B00D549427047634682
:1037B0005B1000D3404201B5002000F00BF802BDC1
:1037C0000029F8D003B5FFF715FF0EBC4243891A54
:1037D0001847C0467047C046002B11D1002A0FD1B0
:1037E000002900D1002802D00021C943081C07B4D9
:1037F000024802A14018029003BDC046D9FFFFFF56
:1038000003B4684601B5029800F04CF8019B9E464F
:1038100002B00CBC7047C046F0B54F4646460504A2
:103820002D0C2C1CC0B41704160C3F0C9946030C2D
:103830007C4375435F4373437D19260CAD199C4649
:10384000AF4203D980235B029846C4444B465143A0
:10385000434324042E0C240C2D0466442C195918BF
:103860008919201C0CBC90469946F0BDF0B583B078
:10387000161C1F1C0090019100F02EF8041C0D1C5A
:10388000221C2B1C301C391CFFF7C6FF009A019B21
:10389000121A8B410899201C0A604B60291C03B046
:1038A000F0BDC046F0B5141C83B01D1C0090019102
:1038B00000F00AF9221C2B1C061C0F1CFFF7ACFFA2
:1038C000009A019B121A8B410899301C0A604B60C8
:1038D000391C03B0F0BDC046F0B544465F465646BD
:1038E0004D46F0B41C1C85B0002900DAA9E00F1C7D
:1038F0000021061C8846101C191C002C00DA97E0D9
:10390000341C3D1C82468946B94273D870D0494662
:10391000504600F085F98346391C301C00F080F9D0
:103920005B46181A031C8346203B9C4600D59CE04E
:103930000023002251460092019363469940019171
:1039400051468140019B0091BB4200D983E000D1E8
:103950007EE0009A019B341C3D1CA41A9D416346E5
:10396000002B00DA9AE00026002702960397013622
:103970009E400396012686400296002800D171E001
:103980000099019AD30799464B464E081E435708A3
:10399000002301220CE0AF4201D1A6420AD8A41BA9
:1039A000BD4124196D410138A4185D41002806D09D
:1039B000AF42F0D9013824196D410028F8D12022F6
:1039C000029E039F5B46524236196F4199185AD4A2
:1039D000281CC8402C1C5B46DC40002968DB041C0A
:1039E0008C40231C59468840021CB61A9F4103E0B4
:1039F000B0428CD90026002741464B1E9941002336
:103A000000910193009A019B002554429D41331C73
:103A10006340181C3B1C6B40191C009B019CC01888
:103A2000614105B03CBC90469946A246AB46F0BD0C
:103A30004346DB430C1C9846131C00215842A1410D
:103A40005EE7002746428F4101214942884652E7FE
:103A5000B14200D87DE70026002702960397002890
:103A600000D08DE7029E039FC6E720215346091A26
:103A7000CB400022191C0023009201934B46834047
:103A80000B4301935CE75A4620239B1A2A1C9A4059
:103A9000201C131C5A46D04018439BE720260027C1
:103AA000331A0026029603970127DF40039761E748
:103AB0005B4620215D46C91A031CAC40CB40191C53
:103AC000231C0B438EE7C046F0B545464E4657468D
:103AD000E0B4041C82B00D1C914698468B4262D81B
:103AE0005FD04146484600F09BF8291C061C201C6C
:103AF00000F096F82023311A5B428A46C81865D434
:103B00004B4683401F1C4B468B401E1CAF4258D86F
:103B100055D0A41BBD41002800DA77E00022002325
:103B20000092019301328240019201238B40009365
:103B300000293CD0FB079846404672087B080243A8
:103B4000012600270CE0AB4201D1A2420AD8A41AF8
:103B50009D4124196D410139A4197D41002906D0E8
:103B6000AB42F0D9013924196D410029F8D1202246
:103B70000098019953465242001969419E183AD45F
:103B80002F1CF7405346DD40002E29DB3C1CB4407F
:103B9000231C5446A7403A1C801A99410090019179
:103BA00005E082429DD900230024009301940098EF
:103BB000019902B01CBC90469946A246F0BDA342B2
:103BC000A7D90022002300920193B1E720224B469F
:103BD000521AD3401A1C43468B401F1C174392E7CE
:103BE000534620245646E41A3B1CB540E3401C1CB7
:103BF0002B1C2343CDE7524620239B1A2A1C9A40B4
:103C0000271C131C5246D7401F43BBE7202300222A
:103C1000581A0023009201930132C240019284E7B6
:103C200010B5002903D100F007F8203002E0081C8D
:103C300000F002F810BDC0461C2101231B0498426D
:103C400001D3000C10391B0A984201D3000A08392D
:103C50001B09984201D30009043902A2105C4018E4
:103C60007047C04604030202010101010000000088
:103C7000000000000E4B70B500251E1C0D4CE41A10
:103C8000A410A54204D0AB00F35898470135F8E7DB
:103C900000F054F9084B00251E1C084CE41AA4102F
:103CA000A54204D0AB00F35898470135F8E770BD42
:103CB000483F0000483F0000483F00004C3F0000E4
:103CC000002310B5934203D0CC5CC4540133F9E710
:103CD00010BD000000080042000C0042001000422D
:103CE00000140042BE090000BE090000B409000033
:103CF000BE090000B40900009A0900009A090000FA
:103D0000BE090000BE090000BE090000BE09000097
:103D1000BE090000BE090000BE090000BE09000087
:103D2000BE090000BE090000BE090000BE09000077
:103D3000BE090000BE090000BE090000BE09000067
:103D4000BE090000BE090000BE090000BE09000057
:103D5000BE090000BE090000BE090000BE09000047
:103D6000BE090000BE090000BE090000BE09000037
:103D7000BE090000BE090000BE090000BE09000027
:103D8000BE090000BE090000BE090000BE09000017
:103D9000BE090000BE090000BE090000BE09000007
:103DA000BE090000BE090000BE090000BE090000F7
:103DB000BE090000BE090000BE090000BE090000E7
:103DC000BE090000BE090000BE090000BE090000D7
:103DD000BE090000BE090000BE090000BE090000C7
:103DE000BE090000B4090000B4090000C6090000C3
:103DF000C6090000C6090000C609000000200042F4
:103E00000024004200280042002C00420030004202
:103E100000340042131314141515000000010002B1
:103E20000004000800100020010000000000000352
:103E300000000200121A0000A81A0000A81A0000D0
:103E4000121A0000A01B0000A81A0000A81A000007
:103E5000A81A0000FA190000A81A0000A81A000009
:103E6000A81A0000061A0000A81A0000AC1B0000E7
:103E7000121A000001000000000000000000000015
:103E8000010000000000000001000000010000002F
:103E90000000000000000000010000000100000020
:103EA0000000000001000000000000000000000011
:103EB00001000000000000000100000001000000FF
:103EC00000000000010000000000000000000000F1
:103ED00001000000010000000000000000000000E0
:103EE00001000000000000000100000001000000CF
:103EF000000000000D0E0F1011120000B62B000084
:103F0000B22B0000B22B0000002C0000002C00009F
:103F1000CC2B0000BC2B0000D22B0000042E000094
:103F2000E42D0000E42D0000542E0000F62D0000CA
:103F3000122E0000E82D0000202E0000F8B5C0462B
:103F4000F8BC08BC9E467047CD000000F8B5C046DE
:0C3F5000F8BC08BC9E467047A5000000AD
:083F5C007CF9FF7F0100000069
:0C3F640008000000401F000001000000E9
:04000003000033BD09
:00000001FF
