:10000000A0190020A5340000A1340000A134000094
:1000100000000000000000000000000000000000E0
:10002000000000000000000000000000A1340000FB
:100030000000000000000000A1340000A134000016
:10004000A1340000A1340000A1340000A13400005C
:10005000A1340000A1340000A1340000A13400004C
:10006000A1340000A1340000A13400000000000011
:10007000000000004D0B0000AD0B00000D0C000057
:100080006D0C0000CD0C00002D0D000000000000E4
:1000900000000000A1340000A1340000A1340000E1
:1000A000A134000010B5064C2378002B07D1054B76
:1000B000002B02D0044800E000BF0123237010BDD4
:1000C0000C00002000000000C03E000008B5084BF6
:1000D000002B03D00748084900E000BF0748036829
:1000E000002B00D108BD064B002BFBD09847F9E749
:1000F00000000000C03E000010000020C03E0000D4
:10010000000000007A4BF0B54D4699465F464446E4
:1001100056460B234A46F0B413701433D373754B11
:100120004F46041C0D1CCB469846012683B00E3763
:10013000201C291C0A220023C047D0B2011C1A43EC
:1001400000D1CCE00023321C0A4053404908FAD1C8
:100150005A4253411B0103433B70201C291C0A22B5
:100160000023C047013F041C0D1C5F45E0D14B46F6
:100170009C7BDB7B5C404B465B7B5C404B461B7B4C
:100180005C404B46DB7A5C404B469B7A5C404B467E
:100190005B7A5C404B461B7A5C404B46DB795C40AB
:1001A0004B469B795C404B465B795C404B461B79E8
:1001B0005C404B46DB785C404B469B785C404B4652
:1001C0005B785C404B461B785C4000D18CE0231C84
:1001D00000220120011C19404A405B08FAD10F336C
:1001E0001C4053425A4112014B4622431A74802349
:1001F000414DDB00AB61414B14208027802698469F
:1002000005249847BF0076007820AF61013CC047C5
:10021000E4B2AE617820C0476E61002CF4D1802733
:100220008026354D0534BF0076007820AF61013C53
:10023000C047E4B2AE617820C0476E61002CF4D1B3
:100240004B461133019301239A462B4F5B461D7891
:1002500080239B000524994653462B4241D04B46B0
:100260007B61802678207600013CC047E4B2BE6105
:100270007820C0476D087E61002CEDD101239C469B
:10028000019BE3449B45E1D180271B4D0534BF0012
:100290007820AF61013CC047E4B2AE617820C0472E
:1002A0006E61002CF4D180278026134D0534BF00E9
:1002B00076007820AF61013CC047E4B2AE6178209F
:1002C000C0476E61002CF4D180220B4BD2005A61E2
:1002D00003B03CBC90469946A246AB46F0BD102305
:1002E00039E74B46BB61BCE7002410227CE7C046DF
:1002F000280000209D380000004400413D0300001C
:1003000010B5094B00209847FA21084C8900A047F6
:10031000FA21074B89001860A0470522054B186099
:10032000054B1A6010BDC046B13100009935000080
:10033000040000200000002010E000E0802130B523
:100340000025084B084A1C684902013808D3002CD4
:10035000FBD05460956013680B42FCD00138F6D294
:1003600030BDC0460000002010E000E0802130B524
:100370000025084B084A1C684902013808D3002CA4
:10038000FBD05460956013680B42FCD00138F6D264
:1003900030BDC0460400002010E000E0F0B5574634
:1003A00045464E469246E0B49C46051C07683B8A8B
:1003B000DB0BFCD14900C9B239752968012402263A
:1003C00007E0887B064207D1013328899BB2984217
:1003D00043D9887B0442F4D00223887B034242D075
:1003E0008B73098A41200B4238D1202290461C3A57
:1003F0000023012002269146534540D04246398AC7
:100400000A423ED02C68218AC90BFCD16246126890
:10041000D15C39762C68002107E0A27B164207D117
:1004200001312A8989B28A4227D9A27B1042F4D0AD
:100430004A46398A01330A42DED01E22AB7A101CAA
:10044000002B0BD029680B8ADB0BFCD1C0217B6809
:1004500089020B437B60101C00E012201CBC9046FC
:100460009946A246F0BD0B8A5B07BED5C0224B68F9
:10047000920213434B601820F0E71222DEE70022BD
:10048000DCE74120EAE7C046F0B544465F46564601
:100490004D46F0B4012498464B0007682343DBB275
:1004A0003B75016800230125022607E08C7B26426C
:1004B00007D1013304899BB29C424AD98C7B2542E7
:1004C000F4D07968414B0B4002217B6003689C7B30
:1004D00021424AD099731C8A412321423ED13C4B90
:1004E000013A9B4620239C46802396B2DB020021E2
:1004F0000124022599465E4512D063463A8A13428A
:1005000061D0C27A002A43D0002E41D14B468A46A0
:100510007A681A437A60013EB6B251465E45ECD124
:100520008A4600210368827A002A28D01A8AD20BD0
:10053000FCD1C0227B68920213437B600268138A5D
:10054000DB0BFCD1434650463A7E1B681A54081C0C
:1005500005E07A681D4B13407B601223181C3CBCDD
:1005600090469946A246AB46F0BD198A4907B6D5D2
:10057000C0215A6889020A435A601823EEE71A8A92
:10058000D20BFCD180227B68520213437B60D5E7FB
:1005900003681A8AD20BFCD14A1C93B29A4643468E
:1005A0003A7E1B685A54002201688B7B1C42B2D1F0
:1005B0008B7B1D42AFD10132038992B29342F4D8B2
:1005C0000B1C1221AFE74120C9E7C046FFFFFBFF2C
:1005D000FFFF0000F0B54D4644465F465646031CFB
:1005E000F0B4012719604E4B83B08046081C161CDE
:1005F0000D1C994698473C1C831C9C40231C494970
:100600000D300A6AC4B213436A460B6233796946F5
:100610001370201C444B9847201C444B9847444B74
:100620003079002198472B681C209B0706D503B022
:100630003CBC90469946A246AB46F0BD2B681738A5
:100640003B409A46F3D114332B6043461D6801ACFE
:10065000281CC84780232370534681466370E3708B
:100660007069B369A7709A46002853D0022320709E
:100670006370000C2F4BC0B2211C9B469847534619
:10068000002B41D05346237053460227180CC0B2AA
:10069000211C6770D8474246B389D380F389138100
:1006A000327C8023002A28D0B268002A00D013436D
:1006B000327F002A02D08022D2051343326A002AF8
:1006C00000D013432A68484613432B6080230D3023
:1006D0005B006B60C0B2184B9847FA233168DB00AF
:1006E00059434B1E1818154B9847431F4020FF2BAA
:1006F0009DD89BB26B81002099E7114B9B783B40C2
:100700005A1E9341DB01CFE7281C01210D4B98476E
:100710008246B7E7281C00210A4B9847A6E7C04647
:10072000B508000000040040393200009D3200008E
:1007300081070000A1330000FD3200009935000060
:1007400000200041C907000001220B1C10B5827275
:10075000C2725A8809880433014CA04710BDC046B4
:100760008904000001220B1C10B58272C2725A88E3
:1007700009880433014CA04710BDC0469D0300000A
:1007800030B50E4C83B02378051C002B06D0002911
:1007900004D1637883420FD01D200BE001A90C2007
:1007A000074B0D7098470C20064B984701230020FB
:1007B0006570237003B030BD0020FBE73C000020D3
:1007C000393200009D320000274B984227D019D9BA
:1007D000264B98420CD0264B984207D101292ED0A7
:1007E000002932D002292ED0032922D000207047C0
:1007F000012926D000292CD0022928D00329F5D19F
:100800001C48F4E71C4B9842F0D1012913D0002971
:1008100023D002291FD00329E8D11848E7E701298E
:100820000BD000291DD0022919D00329DED114488C
:10083000DDE71448DBE71448D9E71448D7E7144844
:10084000D5E71448D3E71448D1E71448CFE7144854
:10085000CDE71448CBE71448C9E71448C7E7144864
:10086000C5E70320C3E7C046000C00420010004269
:100870000014004203000B000008004203000700C0
:1008800003001F0003001300030005000300010024
:100890000300110003000900030012000300100010
:1008A00003000A0003000800030006000300040020
:1008B00003001E0070B584B0011C68460F4A70CA60
:1008C00070C012680260009A8A420BD0019A8A4274
:1008D0000BD0029A8A420BD0039B00208B420AD095
:1008E00004B070BD0020C0B2FAE70120C0B2F7E743
:1008F0000220C0B2F4E70330C0B2F1E7A83D000027
:10090000042330B51B4A011CD0690343D361202264
:10091000194BFF321A831A7D0520D20700D430BD4F
:10092000CC784A78A404D20122430C78C025240252
:10093000201CAD0028400243141C1E228878400071
:100940001040221CC02402430879A4020004204065
:10095000082402435A609A6808485203520F944090
:1009600004809A6842804A780271188BC005C00FD3
:100970000001D4E700040040004000414000002096
:10098000F0B5334C258863886B43834202D2182329
:10099000181CF0BD6B1E0342F9D117239542F7D303
:1009A0002C4D123B2E7DF607F2D501262A4B2B80CB
:1009B0002B7D1E42FCD02025264BFF351D8347088A
:1009C000002A1AD0531E9C467F00002306E0B5B2D1
:1009D00002339BB23D8002379A4207D9CE5C634511
:1009E000F5DACD186D782D023543F1E72379002B28
:1009F00001D13F2A04D90023CAE72379002BFAD179
:100A0000628823885343984205D9144BC218802327
:100A10009B019A42BBD880220E4BD2025C682243D3
:100A20005A602022FF321A831A7DD20702D45C60FA
:100A30000523ADE701218008094A4000D8611A80EA
:100A40001A7D1142FCD0034B5C600023A0E7C04636
:100A5000400000200040004144A5FFFF00C07FFF90
:100A600004A5FFFF70B5174B18251C885B886343EE
:100A7000834201D2281C70BD631E0342FAD1013D9E
:100A80009442F7D3104B123D1C7DE407F2D520248D
:100A9000FF341C834008002A11D00025561E400058
:100AA0002B181C882B04A4B21B0CCC54B34202DAC2
:100AB000CB18240A5C700235ABB29A42F0D80025FC
:100AC000D8E7C04640000020004000410F4B1821ED
:100AD0001A885B885343834201D2081C70479200F6
:100AE000013A1042F9D10A4A1339137DDB07F4D5D4
:100AF0002023FF3313838008064B4000D061043964
:100B00001380137D1942FCD00021E6E7400000204D
:100B10000040004102A5FFFF931C9B001950022AD0
:100B200009D0032A0CD0012393401A1C037E1A43D8
:100B30000276002070471023027E13430376F8E705
:100B40002023027E13430376F3E7C04670B50126E7
:100B5000154B1D682B682C7E9B7B1C406B7E1C40BC
:100B600026421AD10226264211D11026264208D149
:100B70002026264204D06B69281C98472B689E7358
:100B800070BD2B69281C98472B689E73F0E7EB68B3
:100B9000281C98472B689E73E7E7AB68281C98478A
:100BA0002B689E73DEE7C046F008002070B5012672
:100BB000154B5D682B682C7E9B7B1C406B7E1C401C
:100BC00026421AD10226264211D11026264208D1E9
:100BD0002026264204D06B69281C98472B689E73F8
:100BE00070BD2B69281C98472B689E73F0E7EB6853
:100BF000281C98472B689E73E7E7AB68281C98472A
:100C00002B689E73DEE7C046F008002070B5012611
:100C1000154B9D682B682C7E9B7B1C406B7E1C407B
:100C200026421AD10226264211D11026264208D188
:100C30002026264204D06B69281C98472B689E7397
:100C400070BD2B69281C98472B689E73F0E7EB68F2
:100C5000281C98472B689E73E7E7AB68281C9847C9
:100C60002B689E73DEE7C046F008002070B50126B1
:100C7000154BDD682B682C7E9B7B1C406B7E1C40DB
:100C800026421AD10226264211D11026264208D128
:100C90002026264204D06B69281C98472B689E7337
:100CA00070BD2B69281C98472B689E73F0E7EB6892
:100CB000281C98472B689E73E7E7AB68281C984769
:100CC0002B689E73DEE7C046F008002070B5012651
:100CD000154B1D692B682C7E9B7B1C406B7E1C403A
:100CE00026421AD10226264211D11026264208D1C8
:100CF0002026264204D06B69281C98472B689E73D7
:100D000070BD2B69281C98472B689E73F0E7EB6831
:100D1000281C98472B689E73E7E7AB68281C984708
:100D20002B689E73DEE7C046F008002070B50126F0
:100D3000154B5D692B682C7E9B7B1C406B7E1C4099
:100D400026421AD10226264211D11026264208D167
:100D50002026264204D06B69281C98472B689E7376
:100D600070BD2B69281C98472B689E73F0E7EB68D1
:100D7000281C98472B689E73E7E7AB68281C9847A8
:100D80002B689E73DEE7C046F008002070B586B081
:100D9000011C6846154B70CB70C070CB70C0009BB7
:100DA0008B4211D0019B8B4211D0029B8B4211D000
:100DB000039B8B4211D0049B8B4211D0059B0020DA
:100DC0008B4210D006B070BD0020C0B2FAE70120FF
:100DD000C0B2F7E70220C0B2F4E70320C0B2F1E7E7
:100DE0000420C0B2EEE70530C0B2EBE7B83D00002A
:100DF000F0B556465F464D464446F0B48BB004AC61
:100E0000231C9246AD4A051C0F1C43CA43C343CA68
:100E100043C3049B9F4200D11BE163689F4200D102
:100E20001CE1A3689F4200D11AE1E3689F4200D110
:100E300018E123699F4200D116E1002399469B46A1
:100E400063699F4200D111E19C499D4B18310622F4
:100E500002A89846984799490C222031201CC04787
:100E60000023AB60EB602B616B612B766B764B469E
:100E7000944A9B009D5053462F609B78082B0CD0C2
:100E80002B713B8801220520DB070BD50BB03CBC46
:100E900090469946A246AB46F0BD5A461720D20767
:100EA000F4D4EDE7FB7B1730DB06EFD402213B885F
:100EB0000B40EBD15146097C002900D0EAE05346B3
:100EC0001B7F002B00D0D6E049467F4A4900136AB9
:100ED000615A0B43136253469B78082B00D1E5E01F
:100EE00053466A461B78082113706B464A465B18C6
:100EF0009C5C6946201C754B9847201C744B984796
:100F00005346524698881B89034390799278104340
:100F1000184353465B78002B02D080231B011843F3
:100F20007F222968CB7B9343FCD1534638805B7B7F
:100F3000002B00D19CE00520042253469B7B002B14
:100F400000D1101C7F222968CB7B9343FCD1FF3357
:100F50003B71002805D07F222968CB7B9343FCD1CD
:100F600078715346987ADB7A002B01D0102318430E
:100F700053461B7B002B01D0202318437F22296876
:100F8000CB7B9343FCD17F21B8712A68D37B8B4301
:100F9000FCD12B797F21042B07D07F21082B40D057
:100FA0007F21002B25D0172070E7D37B8B43FCD10A
:100FB00052462833D35C7F223B742968CB7B934312
:100FC000FCD152462933D35C7F223B752968CB7B09
:100FD0009343FCD152462A33D35C7F223B76296867
:100FE000CB7B9343FCD152462B33D35C00207B76E2
:100FF0004CE7D37B8B43FCD153467F221B8D3B8236
:101000002968CB7B9343FCD153467F225B8D3B8386
:101010002968CB7B9343FCD153469B8D00207B8377
:1010200034E7D37B8B43FCD153467F229B6A3B61E1
:101030002968CB7B9343FCD153467F22DB6ABB619B
:101040002968CB7B9343FCD153461B6B0020FB618B
:101050001CE70023DAB293469946F5E60123F9E747
:101060000223F7E70323F5E70423F3E70523F1E77A
:101070000120002261E70123002201A98B704B703F
:101080005346CA7052461B6A526AD8B2114B0A7054
:10109000984719E701A9CB7053461B7E8A700B70E5
:1010A0005346187D0B4B4A70984708E74946013173
:1010B0004900136A615A0B43136211E7B83D0000FF
:1010C000853D0000F0080020000400403932000097
:1010D0009D320000A133000002681523D17BC906B0
:1010E00001D5181C704713889B070CD57F21D37B33
:1010F0008B43FCD1022113888B43138000687D3120
:10110000C37B8B43FCD1012311880B431380002345
:10111000E7E7C046102310B5374A82B091690B4308
:10112000364993610B781022DB0902D0101C02B003
:1011300010BDC3780732002BF8D004799C42F5D853
:1011400044799C42F2D80B78153A93430B70CB79D3
:101150005BB2002BFBDB4378002B01D10022E5E7DB
:10116000041C837801A90B700120254B9847254B5F
:10117000012098472378002B02D00120224B98476A
:10118000E3782279013B1D49002A2FD004200A78F8
:1011900002430A702279013A824013431748C17909
:1011A000164A49B20029FADBDBB253706379002B8F
:1011B00013D12378114A002B0AD0802311780B43D6
:1011C00013700E4AD3795BB2002BFBDB0022ADE734
:1011D000022113780B431370F3E7D17949B2002948
:1011E000FBDB013B054ADBB29370E2E704200A789F
:1011F00082430A70D2E7C04600040040001000405D
:10120000393200009D320000CD320000A523034A90
:101210001372D3795BB2002BFBDB704700100040E8
:1012200010B5184C8EB0184B201C98470023002195
:1012300001AA137093709380138113625362138514
:101240009385203393719F335385BE3B13740633CC
:101250005361023B51709172D1721173917351734A
:10126000117793610949201C094B98477F21226817
:10127000D37B8B43FCD1118802330B4313800EB018
:1012800010BDC0460C090020D91000000024004207
:10129000F10D00007F2110B50A4C2268D37B8B43EF
:1012A000FCD1118802330B431380074B98477F21F1
:1012B0002268D37B8B43FCD1022113888B4313809C
:1012C00010BDC046280900206D0300000822024B13
:1012D0009A61043A5A617047004400410822024B67
:1012E0005A61043A9A61704700440041F0B557468C
:1012F0004E464546E0B4BE4B8EB09847BD4EB04713
:10130000012301AC9846637002239946A3700B2316
:101310000027E370201CB84B27702771677198472E
:10132000B047424602254846B44B5A603F32995C6A
:101330002943C9B29954B2499962B2499962586035
:10134000985C2843C0B29854AF48986204209962D0
:101350009860985C2843C0B2985408209860985CC4
:101360002843C0B2985410205860985C2843C0B2FB
:101370009854A64898622020996258608146985CEB
:101380002843C0B29854A24898628020996298601D
:10139000985C2843C0B29854802040009860985CC4
:1013A0002843C0B29854802080009860985C2843FD
:1013B000C0B298548020C0009860985C2843C0B2A6
:1013C0009854802000015860985C2843C0B298541B
:1013D000904898629962802189025960995C8E4890
:1013E0002943C9B299548D49986299628021490272
:1013F0009960995C2943C9B2995480210904996084
:10140000995C2943C9B299548021C9035960995CF8
:101410002943C9B29954824998629962802189040A
:101420005960995C0D43EDB29D547E4A98629A6270
:10143000B0477D4B00259A46181C7C4B98474B467D
:10144000A3717B4B221C63854346237719232362B8
:10145000143B257463627749774B6761A7615046F7
:101460006570A572E5722573A57365732770A77003
:10147000A78027812785A7859847B0476F4B2570A0
:101480005B68201CDB061B0FA3706D4BE57025719C
:10149000657098476B4C6C4DFC20211C80014022EC
:1014A000A8470528F8D0B0476378FF2B4DD0A37824
:1014B000F7221A3B134225D0FC20211C8001402238
:1014C000A8470528F8D0B04723784D2B21D0FC2021
:1014D000211C80014022A8470528F8D0B0471A23D4
:1014E000A3705A4B9846FC208001C0470528FAD0CB
:1014F000B047574FFC20211C80014022B8470528E7
:10150000F8D0B047B0470EB01CBC90469946A246F2
:10151000F0BDFC20211C80014022A8470528F8D0FE
:10152000B0472223A370494B9846FC208001C04756
:101530000528FAD0B047464FFC20211C80014022EC
:10154000B8470528F8D0B047DCE72378FF2BAED1A9
:10155000A378FF2BACD1FC20211C80014022A8479E
:101560000528F8D0B04757236370384B9846FC20C5
:101570008001C0470528FAD0B047354FFC20211C18
:1015800080014022B8470528F8D0B047FC20211C34
:1015900080014022A8470528F8D0B0474123237096
:1015A000FC208001C0470528FAD0B047FC20211C50
:1015B00080014022B8470528F8D0B047FC20211C04
:1015C00080014022A8470528F8D0B0471A23A3700D
:1015D000FC208001C0470528FAD0B047FC20211C20
:1015E00080014022B8470528F8D0B0475FE7C046E1
:1015F000010300000D12000015110000004400411D
:1016000001000250000002D00200025010000250FF
:10161000200002500008025000000250020002D0D8
:10162000400002D0000202D028090020D91000009A
:101630006F17000000340042F10D0000004000412F
:101640000109000048000020650A0000CD0A0000E2
:1016500081090000F8B501234F4646469846FF33FE
:10166000C0B40024354E364F99460BE07B610A200A
:10167000B04742463B6A5B0C1340AB420FD001348B
:10168000102C51D045464B462540EFD0BB610A2077
:10169000B04742463B6A5B0C1340AB42EFD101239B
:1016A000984680239B000024254F99460BE07B61E0
:1016B0000A20B04742463B6A5B0C1340AB420FD056
:1016C0000134102C35D045464B462540EFD0BB6148
:1016D0000A20B04742463B6A5B0C1340AB42EFD155
:1016E000174B002498468023DB00012799460BE026
:1016F0005A610A20B04743461B6A5B0C3B409D423F
:1017000010D00134102C16D03D1C434625404A46CB
:10171000EED09A610A20B04743461B6A5B0C3B40FF
:101720009D42EED1032000E001200CBC904699467A
:10173000F8BD0220F9E70020F7E7C0466D0300007E
:1017400000440041F0B54746A24B80B498470128B9
:1017500000D1E8E0002800D19DE0022853D0032802
:101760004ED19D4D9D4EFC20291C80014022B0474A
:101770000528F8D09A4CA047AB78222B00D11AE16B
:101780001A23984A1370FC20291C80014022B0477C
:101790000528F8D0A0476B78412B00D10DE15722E6
:1017A000914B1A70914BA9325A610132FF325A6142
:1017B0008022D2005A610827042696208B4C4000D4
:1017C000A7618B4D6661A8477F216761A661894C3F
:1017D0002368DA7B8A43FCD1198802320A431A80D3
:1017E000FA20A8477F212368DA7B8A43FCD10221B3
:1017F0001A888A431A8008227C4B9A61043A5A61FB
:1018000004BC9046F0BD744D744EFC20291C800130
:101810004022B0470528F8D0714CA04757236B7081
:10182000754B9846FC208001C0470528FAD0A04798
:10183000724FFC20291C80014022B8470528F8D0AF
:10184000A047FC20291C80014022B0470528F8D081
:10185000A0472223AB70FC208001C0470528FAD0A6
:10186000A047FC20291C80014022B8470528F8D059
:10187000A04708227F215D4B9A61043A9A615D4B33
:101880001B68DA7B8A43FCD1198802320A431A802A
:10189000A047A047FCE7504D504EFC20291C80017A
:1018A0004022B0470528F8D04D4CA04741236B702B
:1018B000514B9846FC208001C0470528FAD0A0472C
:1018C0004E4FFC20291C80014022B8470528F8D043
:1018D000A047FC20291C80014022B0470528F8D0F1
:1018E000A0471A23AB70FC208001C0470528FAD01E
:1018F000A047FC20291C80014022B8470528F8D0C9
:10190000A04708227F21394B9A61043A5A61394B2A
:101910001B68DA7B8A43FCD1198802320A431A8099
:10192000A047A047FCE72C4D2C4EFC20291C800131
:101930004022B0470528F8D0294CA04757236B70A8
:101940002D4B9846FC208001C0470528FAD0A047BF
:101950002A4FFC20291C80014022B8470528F8D0D6
:10196000A047FC20291C80014022B0470528F8D060
:10197000A0471A23AB70FC208001C0470528FAD08D
:10198000A047FC20291C80014022B8470528F8D038
:10199000A04708227F21154B5A61043A9A61154BE2
:1019A0001B68DA7B8A43FCD1198802320A431A8009
:1019B000A047A047FCE72223E3E60B4A13708022EE
:1019C0000A4B52005A6192185A618022D2005A6121
:1019D000F1E6C0465516000048000020650A0000E8
:1019E0000D120000440900200809002000440041B5
:1019F0006D03000028090020CD0A000081090000C5
:101A000038B50A4C0A4DFC20211C80014022A84711
:101A10000528F8D0074B984723780020463BDBB2D7
:101A20000A2B01D8044AD05C38BDC04648000020CB
:101A3000650A00000D120000E43D0000F0B55746B5
:101A40004E464546E0B45D4B8EB01E68041C0D1C2E
:101A5000171C002E2FD05A4B188A80B2002800D1B4
:101A600072E0584B800258499847584E33689C465C
:101A7000574B60443060984200DD7BE07F21554841
:101A80000268D37B8B43FCD102241188A1431180CF
:101A90007F214B4A1382504B13830268D37B8B43C5
:101AA000FCD1118802330B4313800EB01CBC90464E
:101AB0009946A246F0BD01211960002301AA537086
:101AC0009372D372137393731374137720239371E8
:101AD000E023DB009380404B517353859A463D4B86
:101AE00056619946364B96619846191C16625662A5
:101AF0003A4B48461670967016811685968598471B
:101B0000434652461E821A834B467F211A68D37B76
:101B10008B43FCD1118802330B431380304B984721
:101B2000304B1B78412B3AD0572B04D1201C291C59
:101B30003A1C2D4B984732202C4B98472C4B9847FA
:101B40000022224B1A60B0E7254B9847254B1B78A3
:101B5000412B29D0572B04D1201C291C3A1C224B85
:101B600098473220214B9847214B98470022174B2A
:101B70001A6083E71A4B98471A4B1B78412B18D0F1
:101B8000572B04D1201C291C3A1C174B9847322094
:101B9000164B9847164B9847002333606EE7201C7E
:101BA000291C144B9847C6E7201C291C114B984749
:101BB000D7E7201C291C0F4B9847E8E7A800002016
:101BC00000280042B936000080BB0000A4000020BD
:101BD000B70B000088000020ED360000F10D00007A
:101BE000DD12000008090020B52C0000951200004D
:101BF000CD12000005010000F8B556464D4644469A
:101C00005F460420F0B442217D4DA8470520002105
:101C1000A84780210A20A8477A4E0120B0470F2309
:101C2000011C99430C231943C9B20120A847764BE4
:101C3000022098464246754B1360B0472323184351
:101C4000C1B20220A8470320B047011C0320A847C7
:101C500043461B68DB78002B0DD06D4B0024994662
:101C60004B460920195DA84743461B680134DB78C1
:101C7000E4B2A342F4D8674B0D20012180229B4699
:101C80009847232302249A46FF340420B047013C9E
:101C900081460520B047002C00D19BE057464B46BB
:101CA0001F40F2D04B46DB074AD4022000212322FA
:101CB000D847002100220320D84743460A201C6849
:101CC000B04720710C20B0470723184043461B68DB
:101CD000D8800620B047041E3DD100239A464346D3
:101CE0001B681B79002B14D0494B0024994609200E
:101CF000B0474B46185543461A6801341379E4B28D
:101D00009C42F4D3D188002903D0002B01D0013BA1
:101D10001371391C0420A84705200021A8470A2078
:101D20008021A84704200121A8470D200021A847B1
:101D3000534618B23CBC90469946A246AB46F8BD05
:101D4000022000212322D847032000210022D84767
:101D500001239A46DDE706239A46230703D400238E
:101D60009A46A30733D4E30720D4E3062CD40423F4
:101D7000234233D04246126811798B4602218A46AB
:101D80005946012914D1D2889A4311D10920B0476C
:101D90001F4B5A46187043461B681A7123060DD410
:101DA00006200021A8471C4B9A46B2E70B239A460F
:101DB000230603D406200021A84790E7062000212F
:101DC000A8470D239A468AE709239A46F0E703239A
:101DD0009A46C8E723274B461F4063E7630602D5B0
:101DE0000E4B9A46E4E72306E8D45346062000212A
:101DF000002B03D1A8470C239A4670E7A8476EE74B
:101E00005923000089230000AC000020880900202D
:101E100048090020D923000002020000047E0000CF
:101E2000F0B547464E4C80B401200F21A047152045
:101E30004021A047AA212C20A0474A4D2C20A8478A
:101E40000822494F00210820B8471220A84708233C
:101E50008026191C9846764201403143C9B21220AF
:101E6000A0471320A847414601403143C9B213207F
:101E7000A04719206D21A04726204821A0471820FF
:101E80005521A04724202621A0472720F421A04740
:101E900080222A200121B847A6212B20A0472A20F2
:101EA000A847F023011C1940EE3B19432A20A04704
:101EB0002D203221A0472C200021A04714200121F1
:101EC0000322B8470C2001214022B8478136042064
:101ED000A8470642FBD004200121A04780222A20E7
:101EE0000121B847A6212B20A0472A20A84702237A
:101EF00098460F264346B043C1B21943C9B22A20BF
:101F0000A0472D203221A0472C200021A0470B20E4
:101F10001A21A04716201021A04717208721A0478B
:101F200001200021A04780222A200121B847A621B4
:101F30002B20A0472A20A8474346B043C1B21943EB
:101F4000C9B22A20A0472D201421A0472C2000210F
:101F5000A0473820CD21A04704BC9046F0BDC04624
:101F60005923000089230000D923000010B5041C68
:101F70000F210120034B9847201C034B9847034B2C
:101F8000984710BD592300006D030000211E00007A
:101F9000F0B557464E4645468246E0B408222E4EDE
:101FA000082088460021B0472C4D0E208021A847EC
:101FB000122000218022B047802213200021B04748
:101FC0000D200721A84700235246254C00272370E7
:101FD0006370A3702371E380224B2A201A70994604
:101FE000012380220121E3702772B047A6212B2014
:101FF000A8471D4B2A209847F023011C1940EE3BAF
:1020000019432A20A8472D200421A8472C2000216D
:10201000A847164B9847C3B2051C002B0CD0062BC3
:102020000AD04346FF201F705F70284000B21CBCDE
:1020300090469946A246F0BD23790B20022BF5D19C
:10204000E388002BF2D1404649460222084B9847CC
:10205000FF202840EAE7C046D923000059230000AA
:10206000880900204809002089230000F91B00008E
:10207000853D0000F0B5564644465F464D46002378
:10208000F0B46E4C83B00190A370E3702371637160
:10209000A37112206A4B8A46161C002180229847A1
:1020A000132000218022664B9847664B0E200021AA
:1020B00098469847644F5346202B11D90223FF338B
:1020C00099460D200021C0470E208021C0474B4675
:1020D00018B203B03CBC90469946A246AB46F0BD50
:1020E000072352461A4053469346DB08002A00D184
:1020F00090E06A4612795D1C22705A461B0120321C
:10210000D31863703378A370012D0DD07378E3700A
:10211000022D09D0B3782371032D05D0F3786371B4
:10212000052D01D13379A3715B46190119430D20A7
:10213000C04700233B707B70BB703B71FB803B72E0
:10214000AB1C8022FB702A203D4B01219847A62121
:102150002B20C0473D4B2A209847F023011C1940F3
:10216000EE3B19432A20C0472D206421C0472C2074
:102170000021C047364B98478146062801D00028E9
:102180009FD13B79FA88D9009C465B468918C91AC9
:10219000C9B28A445346282B47DC002A02D0634642
:1021A00001333B7100239C465B46002B07D06B1E1E
:1021B000F318197822780A431A7001239C460423E5
:1021C0005B1B9B460022002B12DD59460091011C2F
:1021D000002360468C46A118095CB21851550133A2
:1021E0000099DBB21A1E8A42F5DB63468446181C4E
:1021F00006281DD0604633787178A2185940B3780C
:10220000125C5940F3784B409A4200D159E7114B88
:10221000994656E71D1C6B461B7923702B01203312
:102220006370002D00D06DE77EE70423994648E7F0
:1022300053466A46137013789A463CE748090020D3
:10224000D9230000592300008809002089230000B9
:10225000F91B000001050000F0B54746804680B438
:102260000C1C12200121364E171C8022B047802200
:1022700013200121B0474346324D2B7070236B7001
:10228000231CAA1C13439B074AD10023181C211DA1
:102290008A425841011CA81D84425B410B43DBB2BA
:1022A000002B3DD02368190AAB70E970190C1B0E86
:1022B00029716B71627823782A205340A27801211A
:1022C0005340E278204C5340AB710023237063707D
:1022D000A3702371E380237207238022E370B04749
:1022E0001A4EA6212B20B047194B2A209847F023DD
:1022F000011C1940EE3B19432A20B0472D20142120
:10230000B0472C200021B047124B9847002803D13A
:102310002379012B0DD0042000B204BC9046F0BDFF
:102320002378AB706378EB70A3782B71E3786B71D3
:10233000C0E7E388002BEED12B783B70ECE7C0467A
:10234000D9230000480900208809002059230000F3
:1023500089230000F91B000000B585B06B46597059
:102360001870282301A90B806B464B6002234B8019
:10237000002303480B724B72024B984705B000BD17
:10238000940900206507000070B58AB06B4604A967
:10239000D871073328204B600F25002301220B4EF4
:1023A00007AC08800B724B7220806D4423726372FD
:1023B000301C074B4A80628008959847301C211CCE
:1023C000044B984728780AB070BDC0469409002095
:1023D0006507000049070000F0B556464D464446E3
:1023E0005F46F0B489B06B468A46282102AD9871E9
:1023F000063305AC6B600023298021806946914635
:102400000122194F2B726B7223726372174BCE1D10
:102410008046291C381C6A8062809B46666098470B
:10242000134B381C211C984752463378002A16D18A
:102430004A4693436B7028232380263B42466380A1
:102440000023381C211C2A70656023726372D847F0
:1024500009B03CBC90469946A246AB46F0BD4A4600
:102460001A43131CE6E7C0469409002065070000E4
:102470004907000030B5154B15491C6A012308882F
:10248000144A1C4090421ED9134A137000230B803B
:10249000124B1A780132D2B21A701A78012A01D975
:1024A00000221A7001251B780A885B0008882A40E0
:1024B0009B185B0242089B18094A9C540B88013305
:1024C0009BB20B8030BD054BECE7C0460044004199
:1024D000B4080020FF030000B0000020B10000207D
:1024E000B4000020F0B55F4656464D4644460023F2
:1024F000F0B495B006AA9380C022D2009446089307
:1025000009930C930D930E930F93109311931293C1
:1025100013930A930B93334B63440593324B9847C1
:10252000324B1B78002BFBD02F4B984700222F4BB0
:1025300010AF1A70059B9A4607AB9B460CAB9946A9
:102540005A460023C846D34699469246284E5E44D2
:1025500015E053461B7834780025012B1BD0002B47
:1025600000D1F4E1022B49D0032B00D0EBE1022390
:102570005246137001363C607D60B34520D01D4B40
:102580001B78002BE5D01C4B0025F3181C78534614
:102590001B78012BE3D13B68A34200D104E2082160
:1025A0004A4606AB08205B1849469B5806AA00938A
:1025B00012180133013653503C607D60B345DED1C3
:1025C00080239B009C460123E3449C460333E24462
:1025D0009C460433E1449C464B460837E044082BB4
:1025E000B4D19BE7B40000200D120000B000002021
:1025F00000FEFFFFB100002000FCFFFF3B68A3428C
:1026000000D1B0E143461A685B6892185B410392BF
:102610000093012C00D114E241460CC10323524621
:10262000102113704A4606AB10205B1849469B5890
:1026300006AA0293121801335350402B9AD10099E5
:10264000039BCA065B09134348091F22191C9446C1
:102650001140C74A89005158002900D173E1C006D2
:1026600000995B0903436246880A191C1140C04A5D
:1026700089005158002900D165E1C0065B09034378
:102680006246181C1040BA4A800000991058C90BC5
:10269000002800D157E1C9065B090B430099624647
:1026A000080D191C1140B24A89005158002900D167
:1026B00049E1C00600995B0903436246480E191CB4
:1026C0001140AB4A89005158002900D13BE1C006B6
:1026D0005B0903436246181C1040A54A800000991C
:1026E0001058890F002800D12DE1C9065B090B4362
:1026F000101C191C6246114089004158002900D164
:1027000021E15909114089004158002900D11AE1FD
:102710009B0A1A4092008258002A00D113E19B05BF
:10272000DB0E9B00C358002B00D10CE1914A0098AE
:10273000039B914910401940031C42088F480240F6
:102740009A1A101C8E4B92081A40184010180290CA
:102750008A484A080240891A0A1C89081A40194006
:1027600088180490039A874800991040864A1140BF
:102770008C464A0881490A4061468A1A111C92080F
:102780001A40944619408C447C4942080A40801AF9
:10279000021C6146800818401A4082180809011C72
:1027A0007A48614401400802411808040818010EE3
:1027B000100982187548024010028218100410187F
:1027C000000E081802998C460A09704962440A40B2
:1027D00011028A1811045218110E049A029194469B
:1027E00011096A4A614411400A0251180A048A1800
:1027F0000299120E8C46012162440243114200D01C
:10280000A1E0039A624900981140624A8C46104048
:102810005A4942080A40821A101C92081A4018406D
:102820001018624652080A406146891A0A1C890833
:102830001A40194089180491039A5749029011408F
:102840008C46564A00984D49104042080A40821A68
:10285000101C6146920818401A401218480847494F
:1028600008406146091A081C8908184019400B18CD
:102870001809C3180298110984468A1843490A4066
:1028800011028A18110451180A0E404919400B020E
:102890005B181904591803093C48634418400302A3
:1028A0001B1818041818049B090E9C4651181A0985
:1028B000364B62441A4013029A181304D318000EC0
:1028C0001B0EC0180143012008423CD10123039A8A
:1028D0001A4238D1009B5B025B0A134333D0101CB1
:1028E0000099520DCB021A43890683090B430F212D
:1028F0000B40191C009B120311435A05C30A1343D2
:10290000FF221B0113400A1C1A43009B1904030CED
:102910000B430F210B401902009B0A4391B25A004E
:10292000C30F1343009A800E92011043021C0F2024
:102930001B0110400343D8B2194B000408181A7841
:102940000021184B9847534600221A7012E6002CBB
:1029500000D00FE63B687A68134300D00AE653467E
:1029600001221A7006E67B68002B00D04AE6EAE7EF
:10297000F03D00001042080042082184555555558D
:102980003333333384104208218410000F0F0F0FAC
:1029900008218410420821001042082184104200BE
:1029A000440900203D1A00007B68002B00D0F6E5AA
:1029B00008214A4606AB5B189B58102B3ADD40466F
:1029C0000021002201604260102006AA1218494628
:1029D000002001335B105050191C00220023844654
:1029E00000920193002922DD081C02976146271CF2
:1029F000AC460396141C1D1C0126A4185D41013130
:102A00002643321C2B1C8142F4D10092019365466F
:102A100010238C4606A9C918484663460B50434606
:102A20000099019A19605A603C1C039E029F022380
:102A300052461370082106AB5B184A460021995094
:102A400098E5211C40461143039101604360E5E590
:102A500070B5002500248EB0244EB047244B1D7065
:102A6000244B1D80244B1C70244B9847202301AA23
:102A70001470947054709472D47214739473547369
:102A80001474147793711E4C1E4B556153859561D8
:102A9000156255621C491D4B201C958015811585BA
:102AA000958598471A4902221A4B201C98471A4BC1
:102AB000206898471F22194B7F211B5C13401E3A48
:102AC0009A40131C164A13601023627E13436376E8
:102AD000102322685373D37B8B43FCD111880233BC
:102AE0000B431380B0470EB070BDC0460D120000FE
:102AF000B1000020B4080020B00000202112000026
:102B0000B8080020FF170000002C0042F10D000063
:102B100075240000190B00008D0D0000703E0000B0
:102B200000E100E0642370B58AB06A460093002398
:102B300013711374802269469203029201220B776B
:102B40000893D7338B84194B5242CB81184B194CC5
:102B50000593194B194D8A810693201C18496A4622
:102B6000A8470028F9D12268138ADB0BFCD1116831
:102B700002330B431360E4880023102002E001338A
:102B8000A34210D2118A0842F9D080260D4D760258
:102B90000D4C6E616420A0476420AE61A0470B4BD2
:102BA00098470AB070BD10231382EEE7102700008B
:102BB000020016009409002002001700D50500004D
:102BC00000140042004400416D030000211E00007B
:102BD000F0B55F4656464D464446174BF0B49A460C
:102BE000164B0B259946164B0A279B46154BFF267D
:102BF000984687B06D4404AC6F4405202E70D047D2
:102C00000097262003A9221C2B1CC847002801D0AE
:102C1000C047F2E723780021180663781B04C31825
:102C2000E0781B18A078000218185B461A78064B4B
:102C30009847C047E1E7C0466D1F00004D2C0000DB
:102C4000440900200D1200003D1A0000F8B51D1CBB
:102C5000154B141C9847002801D000B2F8BD9330E2
:102C60000021221C114EB0470028F6D19330211CC0
:102C7000069A0F4FB8470028EFD10423069A12781E
:102C8000134201D12B70E8E7043495300021221C57
:102C9000B0470028E1D19530211C069AB84700289A
:102CA000DBD108232B70D8E7911F000075200000AE
:102CB00059220000F8B55F4656464D464446F0B4EA
:102CC0001A2A60D0222A2DD0541EE4B263B2002BFF
:102CD00053DB80460D1C2022404E9146012714E014
:102CE0003F4B9A4680239B009B4653465A4664209E
:102CF0009A61B04753465A46FA20013C5A61C000D7
:102D0000E4B2B04763B2002B37DB202252429A185C
:102D100029D42B1CD3403B42E2D1314B9A4680232D
:102D20005B00E1E7061C00270025030C06D001200C
:102D3000011C19404D405B08FAD16D0033041B0C97
:102D400047D000240121081C184044405B08FAD1F8
:102D50000120A043B6197F41304380463D43541EB5
:102D6000E4B263B2B7E74A46291CD21A91400A1C62
:102D70004146D9400B1C1343CDE73CBC90469946D5
:102D8000A246AB46F8BD00230002060A300B9C4663
:102D90000027031E09D000200124211C19404840AF
:102DA0005B08FAD1C3099C46400633051B0D12D0BF
:102DB00000240125291C19404C405B08FAD101333D
:102DC000A343B6197F4165463043184380463D43CF
:102DD000C5E70120BEE70123F3E7C0463D0300003D
:102DE000004400417047C0460B4B1A68002A05D1C9
:102DF000EFF31081002905D008490A701A680132E2
:102E00001A60704772B6BFF35F8F054A1170034AAC
:102E100001311170F2E7C046D4080020D808002024
:102E200008000020084B1A68013A1A601B68002B42
:102E300009D1064B1B78002B05D00122044B1A70D8
:102E4000BFF35F8F62B67047D4080020D808002017
:102E50000800002010B5072823D8174B80001B5806
:102E60009F468020000210BD144B1869FBE7144BED
:102E7000186A144B8005800FC340181CF3E70F4BF2
:102E8000D868F0E702200D4C23681840EBD01022E0
:102E90000B49CB681A42FCD023685B0703D40A486D
:102EA000E1E70020DFE7094B00209847A3681B04F7
:102EB0001B0C5843D7E7C046783E0000DC080020D2
:102EC0000008004000127A00006CDC02FD320000B5
:102ED000C222F0B556464D4644465F465E4BD20090
:102EE000F0B49A601E225D4900264B6885B093437A
:102EF0001C3A13434B60032301AC594D2370F0B2CD
:102F0000211C0136A8471C2EF9D1534B554A564F68
:102F1000198AFA60554A0A431A820222198A0A4318
:102F20001A82534B9A6907231205120F022A05D9F8
:102F3000504B1B689B0E3F2B00D18BE04C4A926993
:102F40001205120F022A00D97BE0F8221B0252015F
:102F500013403F2213437B6000233B60464BBB6022
:102F600004223B683C4E13433B60336A3C3293433C
:102F700040321343414A134002223362336A1343FF
:102F800033623F4B98470023984663706372237007
:102F900080235B006360FF3B9B462372394B211CFF
:102FA00001209A469847384B012099469847434656
:102FB0006370637204232370202363605B46211CCB
:102FC00002202372D0470220C8475B46211C002004
:102FD0002370A8472D4B00209847022210213B6800
:102FE00013433B603B687E3293439BB2B384F268E9
:102FF000194B1142FBD0BA68D021DA627A689A6222
:103000003A6892B29A841A1CD3680B40D02BFBD139
:1030100000231F4A211C137253729372D372012230
:103020006370237263720020073362602370D0479D
:103030000020C84705B03CBC90469946A246AB4626
:10304000F0BD3F229B0213437B6000233B60114B8A
:10305000BB6085E7203B71E700080040004000416D
:103060003932000000127A00DC080020C4F8FFFFAB
:10307000002000412460800000063F07FFFCFFFFA6
:1030800099300000BD3000006D3100009D3200001D
:103090000004004000063F1C0823064A91690B43C8
:1030A000936101230121044A137013781942FCD162
:1030B0007047C04600040040000C004070B50D7819
:1030C0004B782D02061C041C0543002B02D08023E4
:1030D000DB021D434B7A002B02D080231B031D43D0
:1030E000486801280FD9431E034031D1022805D07A
:1030F0000222013352009042FBD81B0233431C1CB6
:1031000080235B031D430B7A002B02D080239B039B
:103110001D43124A53785BB2002BFBDB104B9847E0
:10312000104B0E491E704A780C4B52B2002AFADB43
:103130001A1C9C60537809495BB2002BFADB802390
:103140004A685B0213401D434D60074B984770BDB2
:10315000802304029B0234431D43D4E7000C00404B
:10316000E92D0000080C0040252E000010B5041CBD
:103170000B4A53785BB2002BFBDB0A4B98470A4B98
:1031800007491C704B78064A5BB2002BFADB8021A2
:10319000536849020B435360044B984710BDC04627
:1031A000000C0040E92D0000040C0040252E00001A
:1031B000F8B5071C194A53785BB2002BFBDB184BA0
:1031C0009847184B154A1F705378144C5BB2002B6C
:1031D000FADB6068144BC004C00E9847061C114B04
:1031E0001F706568114BED02ED0F1F7063785BB2C5
:1031F000002BFBDB094B99680D4B090A8CB29847F1
:10320000002D03D0611CCE40301CF8BD012CFBD931
:10321000301C211C074B9847061CF5E7000C0040AA
:10322000E92D0000040C0040552E0000080C004061
:10323000252E00009935000038B5041C0D78114B7F
:103240002D0205439847104B104A1C705088104BB4
:10325000518800050B40538051880E4B000F0B40E6
:1032600080215380C9015388084C0B42FBD16188EF
:10327000074B02020B4013436380ADB2064B9847E5
:10328000658038BDE92D0000020C0040000C0040B4
:10329000FFF0FFFFFFBFFFFF252E000010B5041C4D
:1032A000064B98478021064B064A1C705388C9017B
:1032B0000B435380044B984710BDC046E92D0000D6
:1032C000020C0040000C0040252E000010B5041C2C
:1032D000064B9847064B074A1C70C02351881B02B7
:1032E0000B435380044B984710BDC046E92D0000A6
:1032F000020C0040000C0040252E0000F0B54746AF
:10330000041C80B41E4EB0471E4B1C701E4C1F4B3D
:10331000658898462D052D0F984763785BB2002B82
:10332000FBDBB0471A4B184A1D705378164C5BB242
:10333000002BFADB6068174BC004C00E9847071CCF
:10334000134B1D706668144BF602F60F1D70637800
:103350005BB2002BFBDB0C4B9968090A8CB2C047AF
:10336000002E05D0611CCF40381C04BC9046F0BD37
:10337000012CF9D9381C211C084B9847071CF3E78E
:10338000E92D0000020C0040000C0040252E00003A
:10339000040C0040552E0000080C00409935000038
:1033A00070B5C2090023002A04D12F4A430994466C
:1033B000DB0163441F2210401E3A8240101CCA7871
:1033C000002A31D10C78802C47D08022240652026A
:1033D00014434A780225161CAE4307D18A78002A86
:1033E00037D180229202144358604A78013A012A68
:1033F00035D9A0250204ED05120C2A43D02522431D
:103400009A622D06020C2A4322439A62CA78002A45
:1034100009D1620303D58A78012A23D058614A78FA
:10342000013A012A13D970BDA0240204E405120C4C
:103430002243D024586024069A62020C22439A62E6
:10344000CA78002AEFD14A78013A012AEBD898606D
:10345000E9E7C022D2021443C6E70024B9E7034AD1
:103460001440C6E79861DAE700440041FFFFFBFF24
:103470007047C04608B5054B9847054B9847054B24
:103480009847054B9847054B984708BDD12E00003B
:10349000E52D00007134000071340000713400002B
:1034A000FEE7C0461449154808B5814209D0144BBF
:1034B000984206D2C243D218920801329200114BB0
:1034C00098471148114B984207D2C243D21892082C
:1034D0000132920000210E4B9847FF210D4B0E4AFE
:1034E0008B43936080230D4A51680B4353600C4B10
:1034F00098470C4B9847FEE7C03E000000000020B4
:103500000C000020853D00000C000020A0090020D8
:10351000973D00000000000000ED00E00040004189
:10352000393D00002935000008B5104B9847104B75
:103530009847104B9847104B984700280FD0032806
:1035400005D10E4B98470E4B98470E4B9847BFF34B
:103550004F8F0D4A0D4BDA60BFF34F8FFEE70C4BD8
:103560009847074B98470B4B9847F0E77534000096
:10357000ED12000045170000011A0000252B000085
:103580000D120000D12B00000400FA0500ED00E050
:10359000512A0000E5240000002243088B4274D326
:1035A00003098B425FD3030A8B4244D3030B8B4244
:1035B00028D3030C8B420DD3FF22090212BA030C4D
:1035C0008B4202D31212090265D0030B8B4219D32E
:1035D00000E0090AC30B8B4201D3CB03C01A52414E
:1035E000830B8B4201D38B03C01A5241430B8B4296
:1035F00001D34B03C01A5241030B8B4201D30B037F
:10360000C01A5241C30A8B4201D3CB02C01A5241A5
:10361000830A8B4201D38B02C01A5241430A8B4268
:1036200001D34B02C01A5241030A8B4201D30B0251
:10363000C01A5241CDD2C3098B4201D3CB01C01A6B
:10364000524183098B4201D38B01C01A5241430975
:103650008B4201D34B01C01A524103098B4201D363
:103660000B01C01A5241C3088B4201D3CB00C01AD0
:10367000524183088B4201D38B00C01A5241430848
:103680008B4201D34B00C01A5241411A00D201466D
:10369000524110467047FFE701B5002000F0FCF8EA
:1036A00002BDC0460029F7D003B5FFF775FF0EBC79
:1036B0004243891A1847C04603460B437FD4002271
:1036C00043088B4274D303098B425FD3030A8B42B6
:1036D00044D3030B8B4228D3030C8B420DD3FF2220
:1036E000090212BA030C8B4202D31212090265D0EE
:1036F000030B8B4219D300E0090AC30B8B4201D3A1
:10370000CB03C01A5241830B8B4201D38B03C01AE7
:103710005241430B8B4201D34B03C01A5241030B5E
:103720008B4201D30B03C01A5241C30A8B4201D30F
:10373000CB02C01A5241830A8B4201D38B02C01ABA
:103740005241430A8B4201D34B02C01A5241030A31
:103750008B4201D30B02C01A5241CDD2C3098B4216
:1037600001D3CB01C01A524183098B4201D38B0193
:10377000C01A524143098B4201D34B01C01A524136
:1037800003098B4201D30B01C01A5241C3088B427B
:1037900001D3CB00C01A524183088B4201D38B0066
:1037A000C01A524143088B4201D34B00C01A524108
:1037B000411A00D201465241104670475DE0CA0FDF
:1037C00000D04942031000D34042534000229C469F
:1037D00003098B422DD3030A8B4212D3FC228901A9
:1037E00012BA030A8B420CD3890192118B4208D37F
:1037F000890192118B4204D389013AD0921100E0E1
:103800008909C3098B4201D3CB01C01A52418309F4
:103810008B4201D38B01C01A524143098B4201D321
:103820004B01C01A524103098B4201D30B01C01A4C
:103830005241C3088B4201D3CB00C01A52418308C6
:103840008B4201D38B00C01A5241D9D243088B421C
:1038500001D34B00C01A5241411A00D201466346BF
:1038600052415B10104601D34042002B00D5494223
:10387000704763465B1000D3404201B5002000F062
:103880000BF802BD0029F8D003B5FFF715FF0EBCF9
:103890004243891A1847C0467047C046002B11D1D1
:1038A000002A0FD1002900D1002802D00021C943ED
:1038B000081C07B4024802A14018029003BDC0468C
:1038C000D9FFFFFF03B4684601B5029800F04CF839
:1038D000019B9E4602B00CBC7047C046F0B54F46F7
:1038E000464605042D0C2C1CC0B41704160C3F0CC6
:1038F0009946030C7C4375435F4373437D19260C43
:10390000AD199C46AF4203D980235B029846C4445C
:103910004B465143434324042E0C240C2D0466448F
:103920002C1959188919201C0CBC90469946F0BDD9
:10393000F0B583B0161C1F1C0090019100F02EF80A
:10394000041C0D1C221C2B1C301C391CFFF7C6FF4D
:10395000009A019B121A8B410899201C0A604B6047
:10396000291C03B0F0BDC046F0B5141C83B01D1C6B
:103970000090019100F00AF9221C2B1C061C0F1C60
:10398000FFF7ACFF009A019B121A8B410899301C7B
:103990000A604B60391C03B0F0BDC046F0B5444628
:1039A0005F4656464D46F0B41C1C85B0002900DA2F
:1039B000A9E00F1C0021061C8846101C191C002CB5
:1039C00000DA97E0341C3D1C82468946B94273D820
:1039D00070D04946504600F085F98346391C301CAA
:1039E00000F080F95B46181A031C8346203B9C4676
:1039F00000D59CE0002300225146009201936346CB
:103A00009940019151468140019B0091BB4200D9F0
:103A100083E000D17EE0009A019B341C3D1CA41A77
:103A20009D416346002B00DA9AE0002600270296AB
:103A3000039701369E400396012686400296002891
:103A400000D171E00099019AD30799464B464E0880
:103A50001E435708002301220CE0AF4201D1A642C9
:103A60000AD8A41BBD4124196D410138A4185D4139
:103A7000002806D0AF42F0D9013824196D41002842
:103A8000F8D12022029E039F5B46524236196F41B5
:103A900099185AD4281CC8402C1C5B46DC400029CD
:103AA00068DB041C8C40231C59468840021CB61A53
:103AB0009F4103E0B0428CD90026002741464B1EAF
:103AC0009941002300910193009A019B00255442E3
:103AD0009D41331C6340181C3B1C6B40191C009B10
:103AE000019CC018614105B03CBC90469946A24675
:103AF000AB46F0BD4346DB430C1C9846131C00212B
:103B00005842A1415EE7002746428F4101214942C8
:103B1000884652E7B14200D87DE70026002702968A
:103B20000397002800D08DE7029E039FC6E720215F
:103B30005346091ACB400022191C0023009201931E
:103B40004B4683400B4301935CE75A4620239B1A64
:103B50002A1C9A40201C131C5A46D04018439BE74D
:103B600020260027331A0026029603970127DF40FC
:103B7000039761E75B4620215D46C91A031CAC40F0
:103B8000CB40191C231C0B438EE7C046F0B54546BD
:103B90004E465746E0B4041C82B00D1C9146984630
:103BA0008B4262D85FD04146484600F09BF8291C02
:103BB000061C201C00F096F82023311A5B428A462E
:103BC000C81865D44B4683401F1C4B468B401E1CB7
:103BD000AF4258D855D0A41BBD41002800DA77E089
:103BE00000220023009201930132824001920123BE
:103BF0008B40009300293CD0FB0798464046720852
:103C00007B080243012600270CE0AB4201D1A2420F
:103C10000AD8A41A9D4124196D410139A4197D4186
:103C2000002906D0AB42F0D9013924196D41002991
:103C3000F8D1202200980199534652420019694157
:103C40009E183AD42F1CF7405346DD40002E29DB46
:103C50003C1CB440231C5446A7403A1C801A99418E
:103C60000090019105E082429DD900230024009339
:103C700001940098019902B01CBC90469946A24656
:103C8000F0BDA342A7D90022002300920193B1E71F
:103C900020224B46521AD3401A1C43468B401F1C0D
:103CA000174392E7534620245646E41A3B1CB5407E
:103CB000E3401C1C2B1C2343CDE7524620239B1AB8
:103CC0002A1C9A40271C131C5246D7401F43BBE7AF
:103CD00020230022581A0023009201930132C2408F
:103CE000019284E710B5002903D100F007F82030D5
:103CF00002E0081C00F002F810BDC0461C210123A0
:103D00001B04984201D3000C10391B0A984201D3BE
:103D1000000A08391B09984201D30009043902A29C
:103D2000105C40187047C046040302020101010103
:103D300000000000000000000E4B70B500251E1CA6
:103D40000D4CE41AA410A54204D0AB00F3589847D8
:103D50000135F8E700F0A0F8084B00251E1C084CC0
:103D6000E41AA410A54204D0AB00F35898470135DB
:103D7000F8E770BDA43E0000A43E0000A43E000091
:103D8000A83E0000002310B5934203D0CC5CC4547D
:103D90000133F9E710BD031C8218934202D0197059
:103DA0000133FAE77047000000080042000C0042AF
:103DB0000010004200140042002000420024004293
:103DC00000280042002C0042003000420034004233
:103DD000131314141515000000010002000400085C
:103DE000001000200100000000000003000002009D
:103DF00001000000000000000000000001000000C1
:103E000000000000010000000100000000000000B0
:103E100000000000010000000100000000000000A0
:103E20000100000000000000000000000100000090
:103E30000000000001000000010000000000000080
:103E40000100000000000000000000000100000070
:103E50000100000000000000000000000100000060
:103E60000000000001000000010000000000000050
:103E70000D0E0F10111200007E2E0000A22E000069
:103E8000A22E0000622E0000622E0000682E0000AC
:103E90006E2E0000842E0000F8B5C046F8BC08BCA9
:103EA0009E467047CD000000F8B5C046F8BC08BC7F
:083EB0009E467047A5000000CA
:083EB800E4FAFF7F01000000A5
:0C3EC00008000000401F0000010000008E
:04000003000034A520
:00000001FF
