S01200004669726D7761726556332E737265634C
S113000098190020E52B0000E12B0000E12B0000F3
S113001000000000000000000000000000000000DC
S1130020000000000000000000000000E12B0000C0
S11300300000000000000000E12B0000E12B0000A4
S1130040E12B0000E12B0000E12B0000E12B00007C
S1130050E12B0000E12B0000E12B0000E12B00006C
S1130060E12B0000E12B0000E12B00000000000068
S113007000000000A10A0000B10A0000C10A00004B
S1130080D10A0000E10A0000F10A000000000000AB
S113009000000000E12B0000E12B0000E12B000038
S11300A0E12B000010B5064C2378002B07D1054B3B
S11300B0002B02D0044800E000BF0123237010BDD0
S11300C00C000020000000003C36000008B5084B7E
S11300D0002B03D00748084900E000BF0748036825
S11300E0002B00D108BD064B002BFBD09847F9E745
S11300F0000000003C360000100000203C360000E8
S113010000000000F8B5061C052480230B4D9B005D
S1130110F20701D4AB6100E06B617820084FB84767
S113012080235B00AB617820B8478023013C5B00EF
S1130130E4B26B617608002CE7D1F8BD00440041BD
S113014075020000F7B50B22304B061C1A701432EE
S1130150DA7300220F1C009201932D4D301C391CC0
S11301600A220023A8470023D4B2002C04D0012182
S113017021404B406408F8E759424B4100980199EB
S11301801B01091813438B73301C391C00230A22EA
S1130190A847009B061C013B0F1C00930E33DCD1C7
S11301A0251C019B1B19DB7B013C5D40231CEDB22C
S11301B01033F6D1281C0023002D05D0012129403D
S11301C06D084B40EDB2F7E70F2259424B41024014
S11301D01B011343019A0F4E13748023DB00B36198
S11301E014200D4B9847281C0C4CA047281CA047F2
S11301F0019B585D0135A047112DF9D10020A0477E
S11302000020A0478023DB007361F7BD2800002095
S1130210F92F0000004400417502000005010000B0
S1130220002806D00022034B58609A601A68D20353
S1130230FCD5704710E000E010B5094B002098474A
S1130240FA21084C8900A047FA21074B890018605D
S1130250A0470522054B1860054B1A6010BDC04627
S113026071290000DD2C00000400002000000020A3
S113027010E000E010B5041C002C05D0034B013C39
S11302801868034B9847F7E710BDC04600000020EC
S11302902102000010B5041C002C05D0034B013CC6
S11302A01868034B9847F7E710BDC04604000020C8
S11302B0210200000268138ADB0BFCD17047022381
S11302C00268917B194208D09373128A412013402B
S11302D05A1E93415B4218400AE00423118A0B40E2
S11302E0181E05D0C0211820536889020B4353609F
S11302F07047002210B5016801238C7B234009D18B
S11303008C7BA40706D40132038992B29342F3D8BA
S1130310122000E0002010BD0122F0B54B8885B00A
S113032002930B8804685B001343DBB223752B4BE9
S1130330051C0F1C98476268294B13406360002812
S11303404AD1281C274B98470190061E44D1029B92
S1130350013B9BB20393029B002B23D0238A9B0671
S113036039D5EB7A002B09D0039B002B06D18022D0
S11303706368D2021343636002960DE0281C1A4B93
S11303809847731C9BB20293237E7A68281C93556A
S1130390124B9847002803D1039B029E0293D6E791
S11303A0029E0190AB7A281C002B05D00E4B984777
S11303B0C0226368920204E00B4B98478022636872
S11303C0520213436360281C074B9847227E7B68C4
S11303D001989A5500E0412005B0F0BDF3020000F9
S11303E0FFFFFBFFBF020000B5020000F0B50F1CC9
S11303F0041C4B8885B0214E05680393B0473B88A5
S1130400201C5B00DBB22B751D4B984702960190B4
S1130410002830D1201C1B4B9847061E01902AD17E
S1130420019B039A934217D02B8A9B0621D5201C4B
S1130430029B98477B68019A201C9B5C2B76104B8F
S11304409847002807D1019A2B8A013201925B0751
S1130450E6D51E2600E0061CA37A0196002B0AD0DE
S1130460029B201C9847C0226B68920213436B6066
S113047001E041230193019805B0F0BDB5020000ED
S1130480F3020000BF020000F0B5071C85B039601C
S1130490081C4B4B141C0E1C98470125831C9D40C3
S11304A02B1C48490D300A6AC5B213430B622379E9
S11304B002AA1370111C281C434B9847281C434B59
S11304C09847434B20790021984733681C209B07A9
S11304D073D40122336817381A400092131E6CD16A
S11304E0143333603E68364B301C9847802303AD89
S11304F02B706B461B7861696B700123AB706B4684
S11305001B780190EB70A3690093002903D1301C80
S1130510304B9847011C02232970090C6B70C8B238
S11305202D4B291C9847009B002B04D1301C012122
S1130530284B984700906B461B78291C2B7002238C
S11305406B70009B180CC0B2234B9847A389FB80A7
S1130550E3893B81227C8023002A06D11F4B02328F
S11305609B7813405A1E9341DB01A268002A00D0F5
S11305701343227F002A02D08022D2051343226A29
S1130580002A00D013433268019813433360802358
S11305900D305B007360C0B2114B9847FA23216899
S11305A0DB0059434B1E18180E4B9847431F40203D
S11305B0FF2B02D800209BB2738105B0F0BDC0466A
S11305C045070000000400407D2A0000F9290000CE
S11305D01106000055060000812B00000020004198
S11305E0C92A0000DD2C000008B501238372C37200
S11305F0014B984708BDC0461903000008B5012304
S11306008372C372014B984708BDC046ED030000D6
S113061037B50D4B041C1A781D1C002A01D0002983
S11306200CD001A90C20094B0C7098470C20084BE6
S1130630984701236C702B70002004E05B78081C41
S1130640A34200D01D203EBD390000207D2A0000B9
S1130650F9290000284A031C00B5081C934218D04D
S113066003D8264A934207D03AE0254A93421DD044
S1130670244A934227D033E00023032939D802F0D7
S113068023FB31020406204B33E0204B31E0204BA6
S11306902FE0002303292CD802F016FB26020406BF
S11306A01C4B26E01C4B24E01C4B22E000230329B6
S11306B01FD802F009FB1B020406194B19E0194B61
S11306C017E0194B15E00023032912D802F0FCFAB5
S11306D010020406154B0CE0154B0AE0154B08E01C
S11306E0002306E0144B04E0032302E0134B00E074
S11306F0134B181C00BDC046000C00420008004209
S1130700001000420014004203000500030006002C
S1130710030007000300010003001E0003001F0084
S11307200300090003000A0003000B00030011008A
S11307300300120003001300030004000300080078
S1130740030010007FB56946094B6A4670CB70C13F
S11307501B680B60002399005158884201D1D8B21C
S113076003E00133042BF6D1002004B070BDC04671
S1130770F4340000024B187D012318407047C04632
S113078000400041042138B51D4A1E4DD369041CA4
S11307900B43D3612023FF332B831B4B9847031C4C
S11307A00520002B2BD0C021E07863788004DB0186
S11307B01843237889001B020B401A1C031CA078E1
S11307C0134340001E21021C0A40C0211343181C7D
S11307D0237989021B040B401A1C031C08211343B0
S11307E06B60AB68094A5B035B0F99401180AB688F
S11307F0538063781371288BC005C00F000138BD86
S11308000004004000400041750700003C00002047
S1130810F7B5264A548813886343994206D980223F
S1130820234B9201CC18182394423CD88023214DA9
S113083000916F68DB023B436B602023FF332B8303
S11308401D4B041C98471C4B2E1C0193002802D1FD
S11308506F60052327E0062C06D8052C0BD2022C4A
S11308600FD0042C12D10CE0402C0FD3412C08D90A
S1130870452C0ED90AE02B8BDB0502D56F601023C3
S113088011E0009B99084900F16102E077601723A9
S113089009E0A520000204433480019B9847002806
S11308A0FBD000237760181CFEBDC0463C0000202E
S11308B000C07FFF0040004175070000F7B5224BE0
S11308C05F881C88009367431823B8423AD8651E92
S11308D0054237D1013BA24234D81C4F151C0E1CD3
S11308E0041CB847052300282CD0194B194A1A8038
S11308F00193B8470028FCD02023019AFF331383C7
S11309000023600840009AB2AA420ED29AB26F1E27
S1130910B15CBA4201DB8AB203E0B2185278120227
S11309200A4319180A800233EDE7009B1A79002361
S11309309A4207D13F2D05D81A1C0420064B211CCE
S11309409847031C181CFEBD3C00002075070000DE
S11309500040004144A5FFFF11080000F8B5174B03
S11309601D885C8818236C43A04224D86C1E044064
S113097021D1013BAA421ED8114B161C0F1C051C89
S113098098470523002816D020220E4BFF326D080D
S11309901A836D00A3B2B3420CD263191B88A2B2AE
S11309A09BB2711EBB548A4202DABA181B0A5370F6
S11309B00234EFE70023181CF8BDC0463C000020B9
S11309C0750700000040004138B5104A138851886B
S11309D018225943884216D89B00013B184212D171
S11309E00B4C051CA047052200280CD02022094BE3
S11309F0FF321A83A808084A4000D8611A80A04729
S1130A000028FCD00022101C38BDC0463C00002049
S1130A10750700000040004102A5FFFF931C9B00E6
S1130A201950037E022A01D10E3206E0032A01D1B5
S1130A301D3202E0012191400A1C13430376002079
S1130A407047000070B50126144B8000C458236819
S1130A50257E9B7B1D40637E1D40354204D0A368E8
S1130A60201C984723689E730226354204D0E3680D
S1130A70201C984723689E731026354204D02369AE
S1130A80201C984723689E732026354204D063694E
S1130A90201C984723689E7370BDC046E808002058
S1130AA008B50020014B984708BDC046450A000020
S1130AB008B50120014B984708BDC046450A00000F
S1130AC008B50220014B984708BDC046450A0000FE
S1130AD008B50320014B984708BDC046450A0000ED
S1130AE008B50420014B984708BDC046450A0000DC
S1130AF008B50520014B984708BDC046450A0000CB
S1130B0070B586B06946094B6A4670CB70C170CB2C
S1130B1070C1002399005158884201D1D8B203E032
S1130B200133062BF6D1002006B070BD0435000059
S1130B30F0B5824B051C89B0081C0E1C141C984788
S1130B407F49071C183106227E4B03A898477C492D
S1130B500C227C4B1E3105A898470023AB60EB6048
S1130B602B616B612B766B76774BBA00D5502E6078
S1130B70A378082B03D11720FA0700D5DBE0012264
S1130B802B7133880520134200D0D4E0F37B173057
S1130B90DB0600D5CFE0022331880B4000D0CAE049
S1130BA0217C002908D002A9CB70237E207D0B7004
S1130BB0664B8A704A709847237F002B0BD0012321
S1130BC0002202A98B704B70236ACA70626AD8B281
S1130BD05E4B0A7098475E4B68461A6A79009446E1
S1130BE0142280186246415A0A431A62A278082ADB
S1130BF00AD11A6A68469446142280186246791CFF
S1130C004900415A0A431A62237801A90B700C2245
S1130C106B469B18DF5D4F4B381C98474E4B381C76
S1130C2098472389A288A1791A43A3780B431343D5
S1130C306278002A02D08022120113432968CA7BF9
S1130C40D209FCD13380637B5A1E9341A27B9B0063
S1130C50002A01D0012213432968CA7BD209FCD19E
S1130C60FF323271002B04D02968CA7BD209FCD12F
S1130C707371E37AA27A002B01D010231A43237BE9
S1130C80002B01D020231A432968CB7BDB09FCD13C
S1130C90B2712B68DA7BD209FCD12A79042A05D0F7
S1130CA0082A36D01720002A45D11FE0DA7BD20962
S1130CB0FCD1231C28331B7833742A68D37BDB09CB
S1130CC0FCD1231C29331B7833752A68D37BDB09B9
S1130CD0FCD1231C2A331B7833762A687F23D07BEC
S1130CE09843FBD12B342378737624E0DA7BD20942
S1130CF0FCD1238D33822A68D37BDB09FCD1638D3D
S1130D0033832A687F23D07B9843FBD1A38D7383DD
S1130D1011E0DA7BD209FCD1A36A33612A68D37B60
S1130D20DB09FCD1E36AB3612A687F23D07B984353
S1130D30FBD1236BF36109B0F0BDC046010B000089
S1130D4004350000E1340000E8080020812B000095
S1130D50000400407D2A0000F929000003681522E0
S1130D60D97BC90614D41A88920705D401211A889C
S1130D700A431A8000220BE0DA7BD209FCD102215B
S1130D801A888A431A800168CA7BD209FCD1EDE72C
S1130D90101C7047102337B53149324C8A691A4305
S1130DA08A612278D20959D1C2780733002A55D0F2
S1130DB00179914252D8417991424FD80222237845
S1130DC093432370E3795BB2002BFBDB4378002B66
S1130DD035D0051C837801A90B700120224B98475C
S1130DE0224B012098472B78002B02D00120204B66
S1130DF09847EB782A79013B0421002A07D022780E
S1130E000A4322702A79013A8A40134302E0227885
S1130E108A432270E27952B2002AFBDB114ADBB228
S1130E2053706B79002B0CD12B78002B0ED08023C0
S1130E30227813432370E3795BB2002BFBDB00239E
S1130E400CE0E27952B2002A03DAFAE723780222AC
S1130E50EFE7013B034ADBB29370E5E7181C3EBDA4
S1130E6000040040001000407D2A0000F929000021
S1130E70992A0000A522034B1A72DA7952B2002A89
S1130E80FBDB70470010004008B5FC2004498001DA
S1130E904022044B98470528F7D0034B984708BDD8
S1130EA0420000205D090000750E000010B5FC2012
S1130EB0084B800198470528F9D0074CA047FC202F
S1130EC0064980014022064B98470528F7D0A047E1
S1130ED010BDC046C9090000750E00004200002084
S1130EE0BD08000010B5041C034B9847034B9C70CD
S1130EF0034B984710BDC046890E000042000020F5
S1130F00AD0E0000C37BDB09FCD10222038813432E
S1130F10038070471F2318401E3B8340181C054A5A
S1130F209BB21343044A000C9362044B184390622F
S1130F307047C0460000025000440041000002D047
S1130F4010B5144C8EB0201C134B9847002301AAF3
S1130F50137093709380138153709372D3721373CD
S1130F6093735373137713625362138593852033FA
S1130F7093719F335385BE3B137406335361023B15
S1130F8093610649201C064B98472068054B9847F7
S1130F900EB010BD040900205D0D000000240042C5
S1130FA0310B0000050F000010B5134C8EB0201C4F
S1130FB0124B9847002301AA1370937093801381F6
S1130FC053709372D3721373937353731374536183
S1130FD093611385938520339371094B201C5385AA
S1130FE00123137718331362143B53620549064BEC
S1130FF098470EB010BDC046200900205D0D0000CA
S11310006F17000000340042310B000038B5051C96
S1131010074C084B20689847074B281C98472368BF
S1131020DA7BD209FCD102211A888A431A8038BD9E
S113103020090020050F00009502000008B5024BAE
S11310401868024B984708BD20090020050F0000CE
S11310500822024B9A61043A9A61704700440041A5
S11310600822024B5A61043A9A61704700440041D5
S11310700822024B9A61043A5A61704700440041C5
S113108008B5014B984708BD711000000822024BB7
S11310905A61043A5A61704700440041F7B5614B04
S11310A098476B4600221A7001225A7000221A7166
S11310B0002202255A710B229D70DA7068465A4B41
S11310C098475A4B98470123594E5A4C73602378DA
S11310D0594F2B4323700020B847756023780120B3
S11310E02B432370B8470420B06023782B4323702C
S11310F00823B36023782B43237010237360237871
S11311002B432370B84720237360237805202B4397
S11311102370B8478023B36023780B202B432370BC
S113112080235B00B36023782B43237080239B00D0
S1131130B36023782B4323708023DB00B3602378D0
S11311402B43237080231B01736023782B4323706C
S1131150B84780239B027360237811202B432370AC
S1131160B84780235B02B360237816202B43237097
S113117080231B04B36023782B4323708023DB0379
S1131180736023782B432370B84780239B047360D8
S1131190237819201D432570B847244B9847274BC3
S11311A09847224B98476B4600221A706A46244B94
S11311B068465B68DB061B0F93706B460022DA708F
S11311C000221A7100225A701E4B98471E4DA847E0
S11311D01E4C164E6378FF2B11D12378FF2B0ED1B2
S11311E0A378FF2B0BD1A8475723194F6370B84737
S11311F0A84741232370B8471A20164B9847A37871
S1131200F722191C1A39114209D0422B07D0A847DA
S11312102278104B22204D2A00D01A209847B0473C
S1131220F7BDC04639020000950D0000750E0000A0
S11312300044004140440041150F0000A90F000084
S11312400040004185070000890E00004200002094
S1131250AD0E0000E50E0000F8B52F4B98470026B0
S11312600127802337402D4C5B00002F01D0A36160
S113127000E0636114202A4DA8470120236A5B0C17
S11312800340BB4203D03618082EE9D142E00026C1
S11312900127802337409B00002F01D0A36100E089
S11312A063611420A847236A9B03DB0FBB4204D06D
S11312B00136082EECD102202CE0002601278023E1
S11312C03740DB00002F01D0A36100E063611420EC
S11312D0A847236A9B03DB0FBB4204D00136082EC8
S11312E0ECD1002016E000260127802337405B0064
S11312F0002F01D0A36100E063611420A847236A92
S11313001B05DB0FBB4204D00136082EECD10320B1
S113131000E00420F8BDC046750E00000044004102
S11313209502000070B5384B984704286AD8374CAA
S1131330374D01F0C9FC300312213F00A047572369
S11313406B70344B98471A20334B9847334B98476C
S1131350334B9847334B9847FCE7A04757236B70B0
S11313602C4B984722202C4B98472F4B98472C4BBB
S113137098472C4B9847FCE7A04757236B70254BA5
S113138098474220244B9847284B9847244B98472A
S1131390244B9847FCE7A04741236B701D4B9847AB
S11313A01A201D4B9847224B98471D4B98471D4BBD
S11313B09847FCE7A047AB781E4E222B04D0A047E9
S11313C0AB78422B00D01A233370A04780218022AF
S11313D06C781948194B49009200412C00D05724CD
S11313E0047059615A618022D2005A61104CA0479E
S11313F09620134B40009847084B9847FA20114B0E
S11314009847A04770BDC04659120000890E0000DD
S113141042000020AD0E0000E50E00006110000047
S11314203D100000750E0000511000008D100000EA
S1131430711000003C090020000900200044004114
S1131440950200000D10000008B5064B9847064BA6
S113145000201B78463BDBB20A2B01D8034AD05C40
S113146008BDC046890E0000420000202E35000051
S113147070B50D4B041C0D1C161C98470B4B1B78A8
S1131480412B07D0572B09D1201C291C321C084B97
S1131490984703E0201C291C064B98473220064B32
S11314A09847064B984770BD611000000009002062
S11314B031230000450100000D10000081100000E0
S11314C0002300B58FB001AA137093701381537079
S11314D09372D37213739373137453619361137779
S11314E01362536213859385203393711F3B5373A7
S11314F0E023DB009380044B044953850448054BE7
S113150098470FB000BDC046ED36000000280042E9
S113151084000020310B00000022074B1A82074A86
S11315201A83074B1B68DA7BD209FCD102211A8883
S11315300A431A807047C04600280042ED36000076
S113154084000020044B1B68DA7BD209FCD1022101
S11315501A888A431A80704784000020F7B5184B14
S1131560061C1D680F1C0192164C002D0CD1012283
S11315701A60154B9847154B9847301C391C019A33
S1131580134B984725601AE0124B188A80B2002842
S113159007D10F4B301C391C019A98470023236054
S11315A009E00D4B80020D4998472368C0180C4B85
S11315B020609842EDDC0B4B9847044B9847F7BDED
S11315C0A4000020A0000020C11400001915000090
S11315D07114000000280042FD2D000080BB0000B3
S11315E0B70B000045150000F0B5422185B07B4DD6
S11315F0071C0420A84705200021A8470A208021B1
S1131600A8470120764CA0470F23019598430C2F3F
S113161004D13843C1B22B1C012002E0C1B2012025
S1131620019B98476F4A704B1A600F2F51D86F4B2C
S11316307A00D55A6E4BDE5D6E4BDB5D02936E4BCA
S1131640DB5D0393002D4BD10220A0473043C1B290
S1131650019B022098470320A047019B011C032003
S11316609847614B1B68DB78AB4207D9634B092071
S1131670595D019B01359847EDB2F2E70C2F05D176
S11316800D20012180225E4B98470AE0544B012033
S113169098470F23011C99430F43F9B20120019B82
S11316A0984702270025FF37029B002B0BD02B42C3
S11316B009D14B4B04209847013F051C484B05209A
S11316C09847002FF0D10120029B2B400293054044
S11316D006E00023042503931E1C42330293FF35C6
S11316E0321C02200021464EB047002103200A1C70
S11316F0B047039B002B59D0002D57D13A4E0A20F6
S11317003768A04738710C20A04707231840336876
S1131710D8800620A047041E34D0030703D48307CF
S113172002D5033500E00625E30719D4E30619D4EE
S11317300422144210D0336802251F79012F12D1DC
S1131740DB8893430FD1264B092098472B4B2D4D13
S1131750187033681F7106E0630604D52A4D02E051
S11317600B2500E00925230603D4002D02D10C2506
S113177000E00D25019B062000219847214A2BB249
S1131780934213D00024326813799C4207D2144B3D
S113179009209847194B18550134E4B2F3E7D1886E
S11317A0002903D0002B01D0013B13710299019B46
S11317B004209847019B052000219847019B0A209B
S11317C080219847019B0420012198470D20002186
S11317D0019B984728B205B0F0BDC046F91B000034
S11317E0291C00007E090020A80000203A350000D2
S11317F05A3500006A3500007A3500003E090020A1
S1131800791C000002020000047E000038B5642147
S1131810124B9847124B041E9C421AD88022114B3B
S11318202A2001219847104DA6212B20A8470F4BB1
S11318302A209847F0230221184001432A20A84770
S1131840E1B22D20240AA8472C20E1B2A8470020A9
S113185001E00220FF3000B238BDC046DD2C00009C
S1131860FE0F0000791C0000F91B0000291C000079
S1131870F8B501202D4C0F21A04715204021A04789
S1131880AA212C20A0472A4E2C20B0470820002152
S1131890021C284FB8471220B0470825011C80239A
S11318A029405B421943C9B21220A0471320B04714
S11318B0802305405B421D43E9B21320A047192051
S11318C06D21A04726204821A04718205521A04774
S11318D024202621A047F4212720A0471648174D8D
S11318E0A847142001210322B8470C2001214022DB
S11318F0B8470420B04701273842FAD0391C0420E5
S1131900A0470D48A8470B201A21A04716201021F4
S1131910A04717208721A047381C0021A047FA20A0
S1131920C000A8473820CD21A047F8BDF91B00000E
S1131930291C0000791C0000881300000D18000009
S113194010B5041C0F210120034B9847201C034BA6
S11319509847034B984710BDF91B000095020000FF
S113196071180000F8B5051C08201E4C021C0F1C41
S11319700021A0471C4E0E208021B04712200021D8
S11319808022A047802213200021A04707210D2098
S1131990B047164BC8201D7001230026144C40008C
S11319A0E370144B26706670A6702671E68026726A
S11319B098470C20104B9847C5B20C49B54201D04A
S11319C0062D09D12279022A09D1E388002B06D1F8
S11319D0381C0A4B984703E03E707E7000E00B25EC
S11319E028B2F8BD791C0000F91B00003E09002054
S11319F07E0900200D180000E9150000E134000004
S1131A00F0B500244F4B85B002904F4D12200F1CAF
S1131A10161C211C80229C70DC701C715C719C71F2
S1131A20A847211C13208022A847211C474C0E20C4
S1131A30A0470394202F73D807253D402A1C511E2C
S1131A408A416946FB089A18097A00923D4A1B01AB
S1131A501170291C2031CB18537000230099DAB27D
S1131A608A4205D2374AF15C9A1891700133F5E73E
S1131A70290129430D20039B98470023344C354802
S1131A8023706370A3702371E3802372009B02337D
S1131A90E370314B98470C20304B9847019006284F
S1131AA001D0002841D12279E188D3005B185B1B67
S1131AB0DBB29C46DB19282B35DC002901D001322E
S1131AC022710022954208D0009B1E4A013BF31864
S1131AD0197812780A431A70012200230421009C09
S1131AE0091B8B4208DA1749009D8918CC5CF11850
S1131AF001334C55DBB2F1E7062802D16744FFB24B
S1131B0098E7317870780F4C4840B178A218484073
S1131B10D25C031CF1784B409A4206D0104B03E090
S1131B200223FF3300E004230193084C0D2000211D
S1131B30A0470E208021A0476B460420185E05B004
S1131B40F0BDC0463E090020791C0000F91B0000CE
S1131B507E090020102700000D180000E915000080
S1131B6001050000F8B5051C1E4E12200C1C171CA4
S1131B7001218022B047132001218022B0471A4E50
S1131B807023357000257370625D731901359A7086
S1131B90042DF9D162782378FA205340A278C0004A
S1131BA05340E278114C5340B371002323706370A7
S1131BB0A3702371E38023720733E3700C4B9847BF
S1131BC00C200C4B9847002809D12379012B05D10F
S1131BD0E388002B02D133783B7000E0281C00B26C
S1131BE0F8BDC046791C00003E0900207E09002093
S1131BF00D180000E91500001FB56B4659701870E8
S1131C00282301A90B806B464B6002234B800023E1
S1131C1003480B724B72034B984705B000BDC04696
S1131C2088090020FD05000070B58AB06B4604A940
S1131C30D871073328204B600F25002301220B4E57
S1131C4007AC08800B724B7220806D442372637260
S1131C50301C074B4A80628008959847301C211C31
S1131C60044B984728780AB070BDC0468809002004
S1131C70FD050000E905000070B5084B0E1C141C9E
S1131C80051C9847031CA343D9B2002E01D004437A
S1131C90E1B2281C024B984770BDC046291C0000C5
S1131CA0F91B0000094B42081340C01A021C084BE0
S1131CB080081A40184080180309064A1B1813406C
S1131CC01802C31818041818000E704755555555B6
S1131CD0333333330F0F0F0F012130B5124B134C35
S1131CE0186A134B08401D88124AA5420BD9124C9E
S1131CF0217000241C8011780131C9B2117011784F
S1131D00012900D91470012115781A881C88114002
S1131D106A005218640809495202121950541A8868
S1131D20013292B21A8030BD00440041FF0300002A
S1131D30AE080020AD000020AC000020AE00002062
S1131D40002300B58FB001AA1370937093801381A0
S1131D5053709372D37213739373537313745361E5
S1131D6093611377136253621385938520339371C0
S1131D70034B044953850448044B98470FB000BDF6
S1131D80FF170000002C0042B0080020310B0000B7
S1131D90002000210023F0B59BB00E900F9112900B
S1131DA01391169017911090119114901591189009
S1131DB0199109AA0A9313700C930B9353700D9302
S1131DC09B4CA0479B4E3378002BFBD00025A047AB
S1131DD02C1C09AB35700093974AA301D3180793C1
S1131DE000230393954B1B78DBB2002B09D1802091
S1131DF00399C0000918079816AA415C12190AC26F
S1131E0007E0079A039916AB525C1B191A6000226B
S1131E105A60009B1878032800D9ECE000F054FFC6
S1131E200212514F16AB1A1913685268134300D0AB
S1131E30E4E012AB1A1913685268134300D0DDE0D2
S1131E400133D9E016AB191912AB1B1908681E68C7
S1131E500AAAB04203D149685B68994203D0535936
S1131E6001335351CAE05159102924DD00200EAB2F
S1131E701E1900220023071C3260736001310CAB71
S1131E80E8504B100193019B9F4211DA0CABEA58C6
S1131E900132EA5032687368101C191C80185941C9
S1131EA00123021C9C461A43326071606744EAE7CE
S1131EB00223009A137000220AABEA509EE0022328
S1131EC09AE016AB1B1941CB12AB1B191A6882425C
S1131ED003D15B68B34200D18DE00EAB19190A68D7
S1131EE04B6892185B41012801D1002E01D00A6091
S1131EF001E0104308604B600323009A13700CAA9E
S1131F00AB580133AB50402B78D10B6801934B682D
S1131F100A21DA060293019B5B091343029A5009D2
S1131F201F22474E1A4092009259002A63D0C206DB
S1131F305B090139134340090029F1D10423414AC3
S1131F400693414B04920593059B02983F4E18401B
S1131F50B047049B071C01981840B04701233A1866
S1131F601A4248D10499059A0E1C171C89197A4102
S1131F7004910592069A013A0692002AE4D1019A44
S1131F801A4238D1029B5B025B0A134333D0029B93
S1131F90500DDB021843000396090F22011C029B1B
S1131FA001989B061E4316403143C60AFF20029B3C
S1131FB05B051E433601029B304008431904019B14
S1131FC01B0C0B4313401B02184381B2029B019864
S1131FD05B00C00F1843029B00019E01019B9B0EF6
S1131FE0334313401843C0B2194B000408181A783D
S1131FF00699184B98470023009A137012AB16AA3F
S11320001B1912191168526819605A60039B013335
S113201003938023039A9B009A4200D0E2E6009B3C
S11320200834013300930435102C00D0D4E6C7E6FD
S1132030750E0000AC000020AE000020AD000020B2
S11320408C3500004208218410420800A51C0000C1
S11320503C0900205D15000038B5174DA847002342
S1132060164A1370164A1380164A1370164B984773
S1132070164B9847164C02221649174B201C9847BA
S1132080164B20689847164B1A5C1F2313400122F5
S11320909A40131C134A13601022637E1343637621
S11320A023685A73DA7BD209FCD102211A880A43C5
S11320B01A80A84738BDC046750E0000AD00002048
S11320C0AE080020AC000020410F0000411D0000BC
S11320D0B0080020D91C00001D0A0000010B0000FC
S11320E00C36000000E100E0642310B58AB06A46B3
S11320F000930023137113748022694692030292A1
S113210001220B770893D7338B84134B5242CB8134
S1132110124B8A810593124B0693124C1249201CD0
S11321206A46124B98470028F7D12268138ADB0BC2
S1132130DB039BB2002BF9D102201168014311602B
S1132140E4881021108A084203D10133A342F8D352
S113215011820AB010BDC04610270000020016000C
S113216002001700880900200014004289040000BE
S113217070B58026044D76026E61044C6420A0473D
S1132180AE616420A04770BD004400419502000088
S1132190F0B50B26FF2387B06E4433700520244B23
S11321A098470A2304AC6B440093224D262003A9CC
S11321B0221C331CA847051E37D132782378667851
S11321C0042A25D92A1C19063304801859412B1CCA
S11321D0E2792E1C12184B41A1780F0292197B410F
S11321E0101C191C2A1CE378267912184B41291C4F
S11321F03006801859412B1C6679A4793204801862
S113220059412B1C2202801859410B4B1A780AE0C1
S1132210291C1B06E07836049E193618064BA07854
S11322201A7800023018054B984707B0F0BDC04635
S113223041190000712200003C0900205D150000D6
S113224008B5034B9847034B9847034B984708BD81
S1132250E9200000712100007118000008B5024B4C
S11322609847024B9847FAE791210000750E000049
S1132270F8B51D1C134B141C9847011E1FD1932045
S1132280221C114FB847011E19D1211C9320069A14
S11322900E4EB047011E12D1069B1A7804231A422F
S11322A00CD0E4189520221CB847011E07D1211C2C
S11322B09520069AB047011E01D108232B7008B25D
S11322C0F8BDC04665190000011A0000651B000036
S11322D000230122002803D0024053404008F8E7BD
S11322E05A40101C7047000070B58026054D7600DA
S11322F0AE61054C6420A047FA206E61C000A0477F
S113230070BDC046004400417502000070B58026CF
S1132310054DB600AE61054C6420A047FA206E61FD
S1132320C000A04770BDC0460044004175020000D3
S1132330F7B5061C0F1C151E222D10D0422A18D0EA
S11323401A2A27D10002060A204C000DA047434256
S11323505841C3B2300500270193000D11E0000C71
S11323601A4CA04743425841C3B200270193B0B26C
S113237007E0081C154CA04743425841C3B2301C27
S11323800193A047441EA041019BC4B2002B04D07A
S11323900F4B03E00026371C341C0E4B9847033DBB
S11323A0EDB26AB2002A0BDB0B4B301C391C984788
S11323B0C30701D5064B00E0064B9847013DEFE704
S11323C0034B002C00D1034B9847F7BDD1220000EA
S11323D00D230000E9220000E12F000070470000F7
S11323E0094B196800290BD1EFF31080074A002824
S11323F005D172B6BFF35F8F0549087001211170D2
S11324001A6801321A607047CC080020D0080020F6
S113241008000020084B1A68013A1A601B68002B58
S113242009D1064B1B78002B05D00122044B1A70EE
S1132430BFF35F8F62B67047CC080020D00800203D
S11324400800002002210B4B1A680A431A601A681C
S11324507E318A43084992B28A84C868064AC00613
S1132460FBD599680020D162596891621B689BB2C0
S113247093847047D40800200008004010B5072852
S113248005D800F021FC06040427271109140020B4
S113249024E0134BD86821E0124B186A124B8005D4
S11324A0800FC340181C19E00D4B186916E0022375
S11324B00B4C2068184011D00A4BDB68DB06FBD5B7
S11324C023685B0709D5094B00209847A3689BB292
S11324D0584303E08020000200E0054810BDC046D8
S11324E0D40800200008004000127A00C92A000025
S11324F0006CDC0270B501218678057842784020B2
S1132500094C0A40236A92018343134380223140D9
S1132510C90193430B437D3A044915402D020B40F6
S11325202B43236270BDC04600080040FFFCFFFF40
S1132530F7B5031C45780F2005401878254A464214
S11325407041148A9E786105490FC0B2B446019265
S11325505F68002E17D1204A97420DD91F4A97422F
S11325600CD91F4A97420BD91E4A97420AD91E4AD0
S1132570974208D8042106E0311C04E0012102E05E
S1132580022100E003215E7A1A7A184B8000DF6092
S113259004270123BC43044340201A4084430337E7
S11325A0920122431E40001839400F028243104911
S11325B0F60116430E406246311C1A400D4B394356
S11325C0D2020B4013431B052D03019A1B0D2B4311
S11325D01382F7BD0008004080841E0000093D00FE
S11325E000127A000024F40080C3C901D40800203A
S11325F0FFF8FFFFFFF7FFFF70B5214B027A9C69DC
S113260020492405240F4389022C07D8F8251202F7
S11326106D012A40DBB21A434A6005E092069B052D
S1132620120C9B0D13434B604388858882791D43AC
S1132630C379134342782B43D20113430B600378CD
S1132640042B1CD1057BC289068A022C0CD8F823E2
S11326502D065B05FF201D402B1C120400040240C4
S1132660134333438B6006E00748AD061204354339
S1132670024015438D6004220B6813430B6070BD48
S113268000200041D40800200000FF0308B50728FB
S113269005D800F019FB120404210C18061E17209B
S11326A01BE002210D4A136A0B43136214E002215A
S11326B00A4A93690B4393610EE00221074A138A85
S11326C00B43138208E00221044A938A0B4393824A
S11326D002E0034B984700E0002008BD00080040DA
S11326E045240000C2231E20F0B54D4ADB004D49AD
S11326F093604B68002583431C3803434B600323DA
S11327008FB009AC23700092474EE8B2211C01350A
S1132710B04701961C2DF7D10F230025012603A8ED
S11327204370424B05704360414B8670467206729B
S11327309847281C3F4FB8470723237238336381D7
S1132740393B2382023B23703B4B6580A580A571F6
S1132750E5712673E68165709B691B051B0F022BCF
S113276006D9364B1B689B0E3F2B00D1203B2372AE
S1132770C023DB002382072300250126237338337B
S1132780E381201C2E4B984702AB9E70181C5D7091
S11327901D702C4B98470620B8472B4B9847802335
S11327A006AC5B00301C211C284F636026726570E8
S11327B065722570B847301C254B98470423211CAB
S11327C0237002201C336360267265706572B847FB
S11327D002201F4B9847211C281C019B26709847F8
S11327E0281C1C4B98471C4B9847194E009BDA68D1
S11327F0D0231340D02BF9D10025184B281C1D726F
S11328005D729D72DD720123211C636006332370A7
S1132810657025726572B847281CB0470FB0F0BDCB
S113282000080040004000417D2A000000127A00A8
S1132830312500008D260000002000412460800026
S1132840F9250000F52400006D2800008D28000003
S113285031290000F929000045240000000400404B
S1132860014B5878C0097047000C00400821054A04
S113287093690B4393610122034B1A701A78D207B0
S1132880FCD4704700040040000C0040F8B50C78FC
S11328904B782402061C051C0443002B02D0802321
S11328A0DB021C434B7A002B02D080231B031C4306
S11328B04B68012B12D95D1E1D400AD102229A4297
S11328C002D201355200FAE780232D0235435B031F
S11328D003E01D02802335439B021C430B7A002B2B
S11328E002D080239B031C430C4FB8470028FBD124
S11328F00B4B98470B4B1E70B8470028FCD10A4B72
S11329009D601D1CB8470028FCD180236A685B02C7
S113291013401C436C60054B9847F8BD61280000C8
S1132920E1230000080C0040000C004015240000C6
S113293038B5051C094CA0470028FBD1084B984723
S1132940084B1D70A0470028FCD18021064A49028B
S113295053680B435360054B984738BD612800000A
S1132960E1230000040C0040000C0040152400008A
S1132970F7B5071C184EB0470028FBD1174B9847F2
S1132980174B1F700193B0470028FCD1154D164B0F
S11329906868C004C00E9847041C019B1F706B68D4
S11329A0DB02DB0F0193114B1F70B0470028FCD1F1
S11329B0AD680F4B9847019B2D0AADB2002B07D190
S11329C0012D07D9201C291C0A4B9847041C01E03F
S11329D00135EC40201CFEBD61280000E12300000D
S11329E0040C0040000C00407D240000080C004052
S11329F015240000DD2C000010B5041C064B98477C
S1132A008021064B064A1C705388C9010B4353802E
S1132A10044B984710BDC046E1230000020C00405F
S1132A20000C00401524000010B5041C0D4B984701
S1132A300D4B0E4A1C700E4B5988588809051040DE
S1132A4058805C880B48090F204058805C880848EF
S1132A506404FBD40B0241880A401A434280064BAB
S1132A60984710BDE1230000020C0040FFF0FFFF77
S1132A70000C0040FFBFFFFF1524000010B50C78C8
S1132A80034B240204439847024BA4B25C8010BD5C
S1132A90292A0000000C004010B5041C064B98477E
S1132AA0064B074A1C70C02351881B020B435380FA
S1132AB0044B984710BDC046E1230000020C0040BF
S1132AC0000C00401524000010B5041C064B984768
S1132AD0064B1C70064B5C88064B2405240F984754
S1132AE0201C054B984710BDE1230000020C004058
S1132AF0000C00401524000071290000D37830B583
S1132B00002B1BD11478802C03D0802324065B0275
S1132B10234302255478AC4309D19478002C02D184
S1132B208024A40201E0C024E402234341605478D9
S1132B30013C012C04D8114C234001E000234160E6
S1132B40A0258CB2ED052C43D0251C4384622D06B0
S1132B500C0C2C431C438462D478002C0CD15B03F2
S1132B6005D59378012B01D1816100E0416153784F
S1132B70013B012B00D8816030BDC046FFFFFBFF45
S1132B8010B500240A1C4309C109A14202D1064917
S1132B90DB015C181F21012301408B40201C191C00
S1132BA0024B984710BDC04600440041FD2A000076
S1132BB07047000008B5054B9847054B9847054BEF
S1132BC09847054B9847054B984708BDE5260000F4
S1132BD0DD230000B12B0000B12B0000B12B00005D
S1132BE0FEE700001248134910B50023884201D1C2
S1132BF0114B07E0114CCA18A242F9D2C45804334D
S1132C001460F7E70E4A934202D2002204C3F9E7A4
S1132C10FF210C4B0C4A8B4393600C4A7F39536859
S1132C200B4353600A4B98470A4B9847FEE7C0464C
S1132C303C360000000000200C0000200C000020A6
S1132C40940900200000000000ED00E00040004175
S1132C5095340000592C000010B5104B9847104BC8
S1132C609847104CA047104B9847104B98470028A2
S1132C7006D0032809D10E4B9847A0470D4B03E01B
S1132C800D4B9847A0470D4B9847BFF34F8F0C4A05
S1132C900C4BDA60BFF34F8FFEE7C046B52B000044
S1132CA09D100000750E000025130000491400005B
S1132CB0412200005D22000059200000911D000007
S1132CC00400FA0500ED00E002B471464908490029
S1132CD0095C49008E4402BC7047C0460022430888
S1132CE08B4274D303098B425FD3030A8B4244D3D0
S1132CF0030B8B4228D3030C8B420DD3FF22090212
S1132D0012BA030C8B4202D31212090265D0030BD0
S1132D108B4219D300E0090AC30B8B4201D3CB03C6
S1132D20C01A5241830B8B4201D38B03C01A524108
S1132D30430B8B4201D34B03C01A5241030B8B420A
S1132D4001D30B03C01A5241C30A8B4201D3CB02F5
S1132D50C01A5241830A8B4201D38B02C01A5241DA
S1132D60430A8B4201D34B02C01A5241030A8B42DD
S1132D7001D30B02C01A5241CDD2C3098B4201D3F5
S1132D80CB01C01A524183098B4201D38B01C01A73
S1132D90524143098B4201D34B01C01A52410309EA
S1132DA08B4201D30B01C01A5241C3088B4201D399
S1132DB0CB00C01A524183088B4201D38B00C01A46
S1132DC0524143088B4201D34B00C01A5241411A6D
S1132DD000D20146524110467047FFE701B500207A
S1132DE000F0FCF802BDC0460029F7D003B5FFF798
S1132DF075FF0EBC4243891A1847C04603460B436D
S1132E007FD4002243088B4274D303098B425FD3DF
S1132E10030A8B4244D3030B8B4228D3030C8B420B
S1132E200DD3FF22090212BA030C8B4202D31212F1
S1132E30090265D0030B8B4219D300E0090AC30BC6
S1132E408B4201D3CB03C01A5241830B8B4201D373
S1132E508B03C01A5241430B8B4201D34B03C01A5C
S1132E605241030B8B4201D30B03C01A5241C30AD4
S1132E708B4201D3CB02C01A5241830A8B4201D345
S1132E808B02C01A5241430A8B4201D34B02C01A2F
S1132E905241030A8B4201D30B02C01A5241CDD2D4
S1132EA0C3098B4201D3CB01C01A524183098B421F
S1132EB001D38B01C01A524143098B4201D34B0108
S1132EC0C01A524103098B4201D30B01C01A52416B
S1132ED0C3088B4201D3CB00C01A524183088B42F2
S1132EE001D38B00C01A524143088B4201D34B00DB
S1132EF0C01A5241411A00D201465241104670474D
S1132F005DE0CA0F00D04942031000D34042534051
S1132F1000229C4603098B422DD3030A8B4212D311
S1132F20FC22890112BA030A8B420CD38901921143
S1132F308B4208D3890192118B4204D389013AD080
S1132F40921100E08909C3098B4201D3CB01C01A55
S1132F50524183098B4201D38B01C01A5241430968
S1132F608B4201D34B01C01A524103098B4201D356
S1132F700B01C01A5241C3088B4201D3CB00C01AC3
S1132F80524183088B4201D38B00C01A5241D9D2DB
S1132F9043088B4201D34B00C01A5241411A00D25C
S1132FA00146634652415B10104601D34042002B58
S1132FB000D54942704763465B1000D3404201B5D7
S1132FC0002000F00BF802BD0029F8D003B5FFF78C
S1132FD015FF0EBC4243891A1847C0467047C046C5
S1132FE0D0400B1CD1409C46203AD3401843524257
S1132FF06346934018437047002B11D1002A0FD128
S1133000002900D1002802D00021C943081C07B4BC
S1133010024802A14018029003BDC046C1FFFFFF51
S113302003B4684601B5029800F04CF8019B9E4633
S113303002B00CBC7047C046F0B54F464646050486
S11330402D0C2C1CC0B41704160C3F0C9946030C11
S11330507C4375435F4373437D19260CAD199C462D
S1133060AF4203D980235B029846C4444B46514384
S1133070434324042E0C240C2D0466442C195918A3
S11330808919201C0CBC90469946F0BDF0B583B05C
S1133090161C1F1C0090019100F02EF8041C0D1C3E
S11330A0221C2B1C301C391CFFF7C6FF009A019B05
S11330B0121A8B410899201C0A604B60291C03B02A
S11330C0F0BDC046F0B5141C83B01D1C00900191E6
S11330D000F00AF9221C2B1C061C0F1CFFF7ACFF86
S11330E0009A019B121A8B410899301C0A604B60AC
S11330F0391C03B0F0BDC046F0B544465F465646A1
S11331004D46F0B41C1C85B0002900DAA9E00F1C60
S11331100021061C8846101C191C002C00DA97E0BC
S1133120341C3D1C82468946B94273D870D0494646
S1133130504600F085F98346391C301C00F080F9B4
S11331405B46181A031C8346203B9C4600D59CE032
S11331500023002251460092019363469940019155
S113316051468140019B0091BB4200D983E000D1CC
S11331707EE0009A019B341C3D1CA41A9D416346C9
S1133180002B00DA9AE00026002702960397013606
S11331909E400396012686400296002800D171E0E5
S11331A00099019AD30799464B464E081E43570887
S11331B0002301220CE0AF4201D1A6420AD8A41B8D
S11331C0BD4124196D410138A4185D41002806D081
S11331D0AF42F0D9013824196D410028F8D12022DA
S11331E0029E039F5B46524236196F4199185AD486
S11331F0281CC8402C1C5B46DC40002968DB041CEE
S11332008C40231C59468840021CB61A9F4103E097
S1133210B0428CD90026002741464B1E9941002319
S113322000910193009A019B002554429D41331C57
S11332306340181C3B1C6B40191C009B019CC0186C
S1133240614105B03CBC90469946A246AB46F0BDF0
S11332504346DB430C1C9846131C00215842A141F1
S11332605EE7002746428F4101214942884652E7E2
S1133270B14200D87DE70026002702960397002874
S113328000D08DE7029E039FC6E720215346091A0A
S1133290CB400022191C0023009201934B4683402B
S11332A00B4301935CE75A4620239B1A2A1C9A403D
S11332B0201C131C5A46D04018439BE720260027A5
S11332C0331A0026029603970127DF40039761E72C
S11332D05B4620215D46C91A031CAC40CB40191C37
S11332E0231C0B438EE7C046F0B545464E46574671
S11332F0E0B4041C82B00D1C914698468B4262D8FF
S11333005FD04146484600F09BF8291C061C201C4F
S113331000F096F82023311A5B428A46C81865D417
S11333204B4683401F1C4B468B401E1CAF4258D853
S113333055D0A41BBD41002800DA77E00022002309
S11333400092019301328240019201238B40009349
S113335000293CD0FB079846404672087B0802438C
S1133360012600270CE0AB4201D1A2420AD8A41ADC
S11333709D4124196D410139A4197D41002906D0CC
S1133380AB42F0D9013924196D410029F8D120222A
S11333900098019953465242001969419E183AD443
S11333A02F1CF7405346DD40002E29DB3C1CB44063
S11333B0231C5446A7403A1C801A9941009001915D
S11333C005E082429DD900230024009301940098D3
S11333D0019902B01CBC90469946A246F0BDA34296
S11333E0A7D90022002300920193B1E720224B4683
S11333F0521AD3401A1C43468B401F1C174392E7B2
S1133400534620245646E41A3B1CB540E3401C1C9A
S11334102B1C2343CDE7524620239B1A2A1C9A4097
S1133420271C131C5246D7401F43BBE7202300220E
S1133430581A0023009201930132C240019284E79A
S113344010B5002903D100F007F8203002E0081C71
S113345000F002F810BDC0461C2101231B04984251
S113346001D3000C10391B0A984201D3000A083911
S11334701B09984201D30009043902A2105C4018C8
S11334807047C0460403020201010101000000006C
S1133490000000000E4B70B500251E1C0D4CE41AF4
S11334A0A410A54204D0AB00F35898470135F8E7BF
S11334B000F0B0F8084B00251E1C084CE41AA410B8
S11334C0A54204D0AB00F35898470135F8E770BD26
S11334D0203600002036000020360000243600008C
S11334E0002310B5934203D0CC5CC4540133F9E7F4
S11334F010BD000000080042000C00420010004211
S1133500001400420020004200240042002800422F
S1133510002C004200300042003400421313141403
S1133520151500010002000400080010002001002D
S1133530000000000003000002000000030103017A
S11335400000000003010301030100000301030163
S1133550030100000301000000000000000041001E
S113356000002300000023001300004242004042F8
S11335704242234242422342130000000000000062
S11335800000010000000100000000000100000034
S11335900000000000000000010000000000000026
S11335A00100000001000000000000000000000015
S11335B00100000001000000000000000100000004
S11335C000000000000000000100000000000000F6
S11335D001000000010000000000000001000000E4
S11335E000000000000000000100000001000000D5
S11335F000000000000000000100000000000000C6
S11336000100000001000000000000000D0E0F107A
S113361011120000F8B5C046F8BC08BC9E467047BD
S1133620CD000000F8B5C046F8BC08BC9E46704703
S1073630A5000000ED
S10B3634C4FAFF7F010000004D
S10F363C08000000401F00000100000016
S9032BE5EC
