:1000000050060020610100005D0100005D0100005C
:1000100000000000000000000000000000000000E0
:100020000000000000000000000000005D01000072
:1000300000000000000000005D0100005D01000004
:100040005D0100005D0100005D0100005D01000038
:100050005D0100005D0100005D0100005D01000028
:100060005D0100005D0100005D0100005D01000018
:100070005D0100005D0100005D0100005D01000008
:100080005D0100005D0100005D0100005D010000F8
:100090005D0100005D0100005D0100005D010000E8
:1000A00008B5064B06480333191A062900D808BDBF
:1000B000044A002AFBD09047F9E7C046300300000D
:1000C000300300000000000008B50748074B191A6C
:1000D0008B10DA0FD118491000D108BD044B002B4A
:1000E000FBD09847F9E7C04630030000300300001A
:1000F0000000000010B5074C2378002B09D1FFF752
:10010000CFFF0548002802D0044800E000BF0121CD
:10011000217010BD300400200000000030030000FA
:1001200008B5094B002B03D00848094900E000BF7F
:1001300008480168002903D0074A002A00D09047E8
:10014000FFF7C2FF08BDC0460000000030030000FA
:1001500034040020300300000000000000B5FEE77A
:100160000F48104910B50023884201D10E4B07E01B
:100170000E4CCA18A242F9D2C45804331460F7E7EF
:100180000B4A934202D2002204C3F9E7094A0A4B00
:10019000FF218A439A60094B9847094B9847FEE72D
:1001A0003003000000000020300400203004002054
:1001B0004C0400200000000000ED00E0910200006F
:1001C000C501000000B5FEE7F7B51E1C234B171C48
:1001D0001A68051C141CFC34E06C0191002803D142
:1001E000A62148001018E06443681F2B16DD1C4A46
:1001F000002A02D1012040422FE0C821480000E03F
:1002000000BF0028F6D0E26C002302604360C622E3
:10021000E064C42461005400435003514368002D3E
:1002200014D0041C883499000F51C2277A00821818
:100230005768012199400F4357601F1C2037BF00AA
:100240003E51022D02D19568294391609E1C01996F
:10025000B4000133215043600020FEBD04030000C0
:100260000000000038B5084B084C1D1CE01A841033
:10027000002C06D0A1006A18043A13689847013C84
:10028000F6E700F04DF838BD2C0300003003000005
:1002900070B50E4B0E4D0024E81A85101E1CAC42A2
:1002A00004D0A100725890470134F8E700F02EF80E
:1002B0000849094A0E1C541AA5100024AC4204D067
:1002C000A300F05880470134F8E770BD1803000020
:1002D00018030000180300002003000008B5034BBA
:1002E000002B02D0024800F005F808BD0000000015
:1002F0006502000008B5011C0020021C031CFFF76A
:1003000063FF08BD0800002043000000F8B5C046A8
:10031000F8BC08BC9E467047DD02000021010000C9
:10032000F8B5C046F8BC08BC9E467047F500000012
:10033000080000200000000000000000F40200207F
:100340005C030020C4030020000000000000000047
:10035000000000000000000000000000000000009D
:100360000000000000000000000000000803000082
:10037000000000000000000000000000000000007D
:10038000000000000000000000000000000000006D
:10039000000000000000000000000000000000005D
:1003A000000000000000000000000000000000004D
:1003B000000000000000000000000000000000003D
:1003C000000000000000000000000000000000002D
:1003D000000000000000000000000000000000001D
:1003E00001000000000000000E33CDAB34126DE6BA
:1003F000ECDE05000B000000000000000000000023
:1004000000000000000000000000000000000000EC
:1004100000000000000000000000000000000000DC
:1004200000000000000000000000000000000000CC
:1004300000000000000000000000000000000000BC
:00000001FF
